{
  "_format": "hh-sol-artifact-1",
  "contractName": "NexusFaucet",
  "sourceName": "contracts/NexusFaucet.sol",
  "abi": [
    {
      "inputs": [
        {
          "internalType": "address",
          "name": "_nexusToken",
          "type": "address"
        }
      ],
      "stateMutability": "nonpayable",
      "type": "constructor"
    },
    {
      "inputs": [
        {
          "internalType": "address",
          "name": "owner",
          "type": "address"
        }
      ],
      "name": "OwnableInvalidOwner",
      "type": "error"
    },
    {
      "inputs": [
        {
          "internalType": "address",
          "name": "account",
          "type": "address"
        }
      ],
      "name": "OwnableUnauthorizedAccount",
      "type": "error"
    },
    {
      "anonymous": false,
      "inputs": [
        {
          "indexed": true,
          "internalType": "address",
          "name": "recipient",
          "type": "address"
        },
        {
          "indexed": false,
          "internalType": "uint256",
          "name": "amount",
          "type": "uint256"
        }
      ],
      "name": "Dripped",
      "type": "event"
    },
    {
      "anonymous": false,
      "inputs": [
        {
          "indexed": true,
          "internalType": "address",
          "name": "previousOwner",
          "type": "address"
        },
        {
          "indexed": true,
          "internalType": "address",
          "name": "newOwner",
          "type": "address"
        }
      ],
      "name": "OwnershipTransferred",
      "type": "event"
    },
    {
      "inputs": [],
      "name": "cooldownPeriod",
      "outputs": [
        {
          "internalType": "uint256",
          "name": "",
          "type": "uint256"
        }
      ],
      "stateMutability": "view",
      "type": "function"
    },
    {
      "inputs": [],
      "name": "drip",
      "outputs": [],
      "stateMutability": "nonpayable",
      "type": "function"
    },
    {
      "inputs": [],
      "name": "dripAmount",
      "outputs": [
        {
          "internalType": "uint256",
          "name": "",
          "type": "uint256"
        }
      ],
      "stateMutability": "view",
      "type": "function"
    },
    {
      "inputs": [
        {
          "internalType": "address",
          "name": "user",
          "type": "address"
        }
      ],
      "name": "getCooldown",
      "outputs": [
        {
          "internalType": "uint256",
          "name": "",
          "type": "uint256"
        }
      ],
      "stateMutability": "view",
      "type": "function"
    },
    {
      "inputs": [
        {
          "internalType": "address",
          "name": "",
          "type": "address"
        }
      ],
      "name": "lastDripTime",
      "outputs": [
        {
          "internalType": "uint256",
          "name": "",
          "type": "uint256"
        }
      ],
      "stateMutability": "view",
      "type": "function"
    },
    {
      "inputs": [],
      "name": "nexusToken",
      "outputs": [
        {
          "internalType": "contract IERC20",
          "name": "",
          "type": "address"
        }
      ],
      "stateMutability": "view",
      "type": "function"
    },
    {
      "inputs": [],
      "name": "owner",
      "outputs": [
        {
          "internalType": "address",
          "name": "",
          "type": "address"
        }
      ],
      "stateMutability": "view",
      "type": "function"
    },
    {
      "inputs": [],
      "name": "refill",
      "outputs": [],
      "stateMutability": "nonpayable",
      "type": "function"
    },
    {
      "inputs": [],
      "name": "renounceOwnership",
      "outputs": [],
      "stateMutability": "nonpayable",
      "type": "function"
    },
    {
      "inputs": [
        {
          "internalType": "uint256",
          "name": "period",
          "type": "uint256"
        }
      ],
      "name": "setCooldownPeriod",
      "outputs": [],
      "stateMutability": "nonpayable",
      "type": "function"
    },
    {
      "inputs": [
        {
          "internalType": "uint256",
          "name": "amount",
          "type": "uint256"
        }
      ],
      "name": "setDripAmount",
      "outputs": [],
      "stateMutability": "nonpayable",
      "type": "function"
    },
    {
      "inputs": [
        {
          "internalType": "address",
          "name": "",
          "type": "address"
        }
      ],
      "name": "totalDripped",
      "outputs": [
        {
          "internalType": "uint256",
          "name": "",
          "type": "uint256"
        }
      ],
      "stateMutability": "view",
      "type": "function"
    },
    {
      "inputs": [
        {
          "internalType": "address",
          "name": "newOwner",
          "type": "address"
        }
      ],
      "name": "transferOwnership",
      "outputs": [],
      "stateMutability": "nonpayable",
      "type": "function"
    },
    {
      "inputs": [],
      "name": "withdraw",
      "outputs": [],
      "stateMutability": "nonpayable",
      "type": "function"
    }
  ],
  "bytecode": "0x608060405268056bc75e2d63100000600255620151806003553480156200002557600080fd5b506040516200112d3803806200112d83398181016040528101906200004b919062000249565b33600073ffffffffffffffffffffffffffffffffffffffff168173ffffffffffffffffffffffffffffffffffffffff1603620000c15760006040517f1e4fbdf7000000000000000000000000000000000000000000000000000000008152600401620000b891906200028c565b60405180910390fd5b620000d2816200011b60201b60201c565b5080600160006101000a81548173ffffffffffffffffffffffffffffffffffffffff021916908373ffffffffffffffffffffffffffffffffffffffff16021790555050620002a9565b60008060009054906101000a900473ffffffffffffffffffffffffffffffffffffffff169050816000806101000a81548173ffffffffffffffffffffffffffffffffffffffff021916908373ffffffffffffffffffffffffffffffffffffffff1602179055508173ffffffffffffffffffffffffffffffffffffffff168173ffffffffffffffffffffffffffffffffffffffff167f8be0079c531659141344cd1fd0a4f28419497f9722a3daafe3b4186f6b6457e060405160405180910390a35050565b600080fd5b600073ffffffffffffffffffffffffffffffffffffffff82169050919050565b60006200021182620001e4565b9050919050565b620002238162000204565b81146200022f57600080fd5b50565b600081519050620002438162000218565b92915050565b600060208284031215620002625762000261620001df565b5b6000620002728482850162000232565b91505092915050565b620002868162000204565b82525050565b6000602082019050620002a360008301846200027b565b92915050565b610e7480620002b96000396000f3fe608060405234801561001057600080fd5b50600436106100ea5760003560e01c806378f337e71161008c5780638da5cb5b116100665780638da5cb5b146101ff5780639f678cca1461021d5780639fb7495814610227578063f2fde38b14610257576100ea565b806378f337e71461019557806380ea3de1146101b35780638b8a60bd146101cf576100ea565b80633ccfd60b116100c85780633ccfd60b1461015b578063538e075914610165578063543f8c581461016f578063715018a61461018b576100ea565b806304646a49146100ef57806335a1529b1461010d57806339b84ecf1461012b575b600080fd5b6100f7610273565b6040516101049190610a46565b60405180910390f35b610115610279565b6040516101229190610a46565b60405180910390f35b61014560048036038101906101409190610ac4565b61027f565b6040516101529190610a46565b60405180910390f35b610163610347565b005b61016d610493565b005b61018960048036038101906101849190610b1d565b61049d565b005b6101936104af565b005b61019d6104c3565b6040516101aa9190610ba9565b60405180910390f35b6101cd60048036038101906101c89190610b1d565b6104e9565b005b6101e960048036038101906101e49190610ac4565b6104fb565b6040516101f69190610a46565b60405180910390f35b610207610513565b6040516102149190610bd3565b60405180910390f35b61022561053c565b005b610241600480360381019061023c9190610ac4565b61083c565b60405161024e9190610a46565b60405180910390f35b610271600480360381019061026c9190610ac4565b610854565b005b60035481565b60025481565b600080600460008473ffffffffffffffffffffffffffffffffffffffff1673ffffffffffffffffffffffffffffffffffffffff16815260200190815260200160002054036102d05760009050610342565b6000600354600460008573ffffffffffffffffffffffffffffffffffffffff1673ffffffffffffffffffffffffffffffffffffffff1681526020019081526020016000205461031f9190610c1d565b9050804210610332576000915050610342565b428161033e9190610c51565b9150505b919050565b61034f6108da565b6000600160009054906101000a900473ffffffffffffffffffffffffffffffffffffffff1673ffffffffffffffffffffffffffffffffffffffff166370a08231306040518263ffffffff1660e01b81526004016103ac9190610bd3565b602060405180830381865afa1580156103c9573d6000803e3d6000fd5b505050506040513d601f19601f820116820180604052508101906103ed9190610c9a565b9050600160009054906101000a900473ffffffffffffffffffffffffffffffffffffffff1673ffffffffffffffffffffffffffffffffffffffff1663a9059cbb33836040518363ffffffff1660e01b815260040161044c929190610cc7565b6020604051808303816000875af115801561046b573d6000803e3d6000fd5b505050506040513d601f19601f8201168201806040525081019061048f9190610d28565b5050565b61049b6108da565b565b6104a56108da565b8060028190555050565b6104b76108da565b6104c16000610961565b565b600160009054906101000a900473ffffffffffffffffffffffffffffffffffffffff1681565b6104f16108da565b8060038190555050565b60046020528060005260406000206000915090505481565b60008060009054906101000a900473ffffffffffffffffffffffffffffffffffffffff16905090565b600354600460003373ffffffffffffffffffffffffffffffffffffffff1673ffffffffffffffffffffffffffffffffffffffff168152602001908152602001600020546105899190610c1d565b4210156105cb576040517f08c379a00000000000000000000000000000000000000000000000000000000081526004016105c290610db2565b60405180910390fd5b600254600160009054906101000a900473ffffffffffffffffffffffffffffffffffffffff1673ffffffffffffffffffffffffffffffffffffffff166370a08231306040518263ffffffff1660e01b81526004016106299190610bd3565b602060405180830381865afa158015610646573d6000803e3d6000fd5b505050506040513d601f19601f8201168201806040525081019061066a9190610c9a565b10156106ab576040517f08c379a00000000000000000000000000000000000000000000000000000000081526004016106a290610e1e565b60405180910390fd5b42600460003373ffffffffffffffffffffffffffffffffffffffff1673ffffffffffffffffffffffffffffffffffffffff16815260200190815260200160002081905550600254600560003373ffffffffffffffffffffffffffffffffffffffff1673ffffffffffffffffffffffffffffffffffffffff16815260200190815260200160002060008282546107409190610c1d565b92505081905550600160009054906101000a900473ffffffffffffffffffffffffffffffffffffffff1673ffffffffffffffffffffffffffffffffffffffff1663a9059cbb336002546040518363ffffffff1660e01b81526004016107a6929190610cc7565b6020604051808303816000875af11580156107c5573d6000803e3d6000fd5b505050506040513d601f19601f820116820180604052508101906107e99190610d28565b503373ffffffffffffffffffffffffffffffffffffffff167f0daf449977d5acafa35195e10b3eb92f97839892a6653afaba222379b58d8a9b6002546040516108329190610a46565b60405180910390a2565b60056020528060005260406000206000915090505481565b61085c6108da565b600073ffffffffffffffffffffffffffffffffffffffff168173ffffffffffffffffffffffffffffffffffffffff16036108ce5760006040517f1e4fbdf70000000000000000000000000000000000000000000000000000000081526004016108c59190610bd3565b60405180910390fd5b6108d781610961565b50565b6108e2610a25565b73ffffffffffffffffffffffffffffffffffffffff16610900610513565b73ffffffffffffffffffffffffffffffffffffffff161461095f57610923610a25565b6040517f118cdaa70000000000000000000000000000000000000000000000000000000081526004016109569190610bd3565b60405180910390fd5b565b60008060009054906101000a900473ffffffffffffffffffffffffffffffffffffffff169050816000806101000a81548173ffffffffffffffffffffffffffffffffffffffff021916908373ffffffffffffffffffffffffffffffffffffffff1602179055508173ffffffffffffffffffffffffffffffffffffffff168173ffffffffffffffffffffffffffffffffffffffff167f8be0079c531659141344cd1fd0a4f28419497f9722a3daafe3b4186f6b6457e060405160405180910390a35050565b600033905090565b6000819050919050565b610a4081610a2d565b82525050565b6000602082019050610a5b6000830184610a37565b92915050565b600080fd5b600073ffffffffffffffffffffffffffffffffffffffff82169050919050565b6000610a9182610a66565b9050919050565b610aa181610a86565b8114610aac57600080fd5b50565b600081359050610abe81610a98565b92915050565b600060208284031215610ada57610ad9610a61565b5b6000610ae884828501610aaf565b91505092915050565b610afa81610a2d565b8114610b0557600080fd5b50565b600081359050610b1781610af1565b92915050565b600060208284031215610b3357610b32610a61565b5b6000610b4184828501610b08565b91505092915050565b6000819050919050565b6000610b6f610b6a610b6584610a66565b610b4a565b610a66565b9050919050565b6000610b8182610b54565b9050919050565b6000610b9382610b76565b9050919050565b610ba381610b88565b82525050565b6000602082019050610bbe6000830184610b9a565b92915050565b610bcd81610a86565b82525050565b6000602082019050610be86000830184610bc4565b92915050565b7f4e487b7100000000000000000000000000000000000000000000000000000000600052601160045260246000fd5b6000610c2882610a2d565b9150610c3383610a2d565b9250828201905080821115610c4b57610c4a610bee565b5b92915050565b6000610c5c82610a2d565b9150610c6783610a2d565b9250828203905081811115610c7f57610c7e610bee565b5b92915050565b600081519050610c9481610af1565b92915050565b600060208284031215610cb057610caf610a61565b5b6000610cbe84828501610c85565b91505092915050565b6000604082019050610cdc6000830185610bc4565b610ce96020830184610a37565b9392505050565b60008115159050919050565b610d0581610cf0565b8114610d1057600080fd5b50565b600081519050610d2281610cfc565b92915050565b600060208284031215610d3e57610d3d610a61565b5b6000610d4c84828501610d13565b91505092915050565b600082825260208201905092915050565b7f436f6f6c646f776e206e6f7420656c6170736564000000000000000000000000600082015250565b6000610d9c601483610d55565b9150610da782610d66565b602082019050919050565b60006020820190508181036000830152610dcb81610d8f565b9050919050565b7f46617563657420656d7074790000000000000000000000000000000000000000600082015250565b6000610e08600c83610d55565b9150610e1382610dd2565b602082019050919050565b60006020820190508181036000830152610e3781610dfb565b905091905056fea2646970667358221220556f35c5a85b08c83af1198c5ba8c90b281260f5683084a6f1bf9a4d8c8f497a64736f6c63430008140033",
  "linkReferences": {},
  "deployedLinkReferences": {}
}