{
  "_format": "hh-sol-artifact-1",
  "contractName": "NexusStaking",
  "sourceName": "contracts/NexusStaking.sol",
  "abi": [
    {
      "inputs": [
        {
          "internalType": "address",
          "name": "_nexusToken",
          "type": "address"
        }
      ],
      "stateMutability": "nonpayable",
      "type": "constructor"
    },
    {
      "inputs": [
        {
          "internalType": "address",
          "name": "owner",
          "type": "address"
        }
      ],
      "name": "OwnableInvalidOwner",
      "type": "error"
    },
    {
      "inputs": [
        {
          "internalType": "address",
          "name": "account",
          "type": "address"
        }
      ],
      "name": "OwnableUnauthorizedAccount",
      "type": "error"
    },
    {
      "inputs": [
        {
          "internalType": "address",
          "name": "token",
          "type": "address"
        }
      ],
      "name": "SafeERC20FailedOperation",
      "type": "error"
    },
    {
      "anonymous": false,
      "inputs": [
        {
          "indexed": true,
          "internalType": "address",
          "name": "previousOwner",
          "type": "address"
        },
        {
          "indexed": true,
          "internalType": "address",
          "name": "newOwner",
          "type": "address"
        }
      ],
      "name": "OwnershipTransferred",
      "type": "event"
    },
    {
      "anonymous": false,
      "inputs": [
        {
          "indexed": true,
          "internalType": "address",
          "name": "user",
          "type": "address"
        },
        {
          "indexed": false,
          "internalType": "uint256",
          "name": "reward",
          "type": "uint256"
        }
      ],
      "name": "RewardClaimed",
      "type": "event"
    },
    {
      "anonymous": false,
      "inputs": [
        {
          "indexed": false,
          "internalType": "uint256",
          "name": "newRate",
          "type": "uint256"
        }
      ],
      "name": "RewardRateUpdated",
      "type": "event"
    },
    {
      "anonymous": false,
      "inputs": [
        {
          "indexed": true,
          "internalType": "address",
          "name": "user",
          "type": "address"
        },
        {
          "indexed": false,
          "internalType": "uint256",
          "name": "amount",
          "type": "uint256"
        },
        {
          "indexed": false,
          "internalType": "uint256",
          "name": "stakeId",
          "type": "uint256"
        }
      ],
      "name": "Staked",
      "type": "event"
    },
    {
      "anonymous": false,
      "inputs": [
        {
          "indexed": true,
          "internalType": "address",
          "name": "user",
          "type": "address"
        },
        {
          "indexed": false,
          "internalType": "uint256",
          "name": "amount",
          "type": "uint256"
        },
        {
          "indexed": false,
          "internalType": "uint256",
          "name": "stakeId",
          "type": "uint256"
        }
      ],
      "name": "Unstaked",
      "type": "event"
    },
    {
      "inputs": [],
      "name": "EARLY_WITHDRAWAL_PENALTY",
      "outputs": [
        {
          "internalType": "uint256",
          "name": "",
          "type": "uint256"
        }
      ],
      "stateMutability": "view",
      "type": "function"
    },
    {
      "inputs": [],
      "name": "MIN_STAKE_DURATION",
      "outputs": [
        {
          "internalType": "uint256",
          "name": "",
          "type": "uint256"
        }
      ],
      "stateMutability": "view",
      "type": "function"
    },
    {
      "inputs": [
        {
          "internalType": "address",
          "name": "user",
          "type": "address"
        },
        {
          "internalType": "uint256",
          "name": "stakeId",
          "type": "uint256"
        }
      ],
      "name": "calculatePendingReward",
      "outputs": [
        {
          "internalType": "uint256",
          "name": "",
          "type": "uint256"
        }
      ],
      "stateMutability": "view",
      "type": "function"
    },
    {
      "inputs": [],
      "name": "claimRewards",
      "outputs": [],
      "stateMutability": "nonpayable",
      "type": "function"
    },
    {
      "inputs": [
        {
          "internalType": "address",
          "name": "user",
          "type": "address"
        }
      ],
      "name": "getStakeCount",
      "outputs": [
        {
          "internalType": "uint256",
          "name": "",
          "type": "uint256"
        }
      ],
      "stateMutability": "view",
      "type": "function"
    },
    {
      "inputs": [
        {
          "internalType": "address",
          "name": "user",
          "type": "address"
        }
      ],
      "name": "getTotalPendingRewards",
      "outputs": [
        {
          "internalType": "uint256",
          "name": "",
          "type": "uint256"
        }
      ],
      "stateMutability": "view",
      "type": "function"
    },
    {
      "inputs": [],
      "name": "nexusToken",
      "outputs": [
        {
          "internalType": "contract IERC20",
          "name": "",
          "type": "address"
        }
      ],
      "stateMutability": "view",
      "type": "function"
    },
    {
      "inputs": [],
      "name": "owner",
      "outputs": [
        {
          "internalType": "address",
          "name": "",
          "type": "address"
        }
      ],
      "stateMutability": "view",
      "type": "function"
    },
    {
      "inputs": [],
      "name": "renounceOwnership",
      "outputs": [],
      "stateMutability": "nonpayable",
      "type": "function"
    },
    {
      "inputs": [],
      "name": "rewardRate",
      "outputs": [
        {
          "internalType": "uint256",
          "name": "",
          "type": "uint256"
        }
      ],
      "stateMutability": "view",
      "type": "function"
    },
    {
      "inputs": [
        {
          "internalType": "uint256",
          "name": "newRate",
          "type": "uint256"
        }
      ],
      "name": "setRewardRate",
      "outputs": [],
      "stateMutability": "nonpayable",
      "type": "function"
    },
    {
      "inputs": [
        {
          "internalType": "uint256",
          "name": "amount",
          "type": "uint256"
        }
      ],
      "name": "stake",
      "outputs": [],
      "stateMutability": "nonpayable",
      "type": "function"
    },
    {
      "inputs": [
        {
          "internalType": "address",
          "name": "",
          "type": "address"
        },
        {
          "internalType": "uint256",
          "name": "",
          "type": "uint256"
        }
      ],
      "name": "stakes",
      "outputs": [
        {
          "internalType": "uint256",
          "name": "amount",
          "type": "uint256"
        },
        {
          "internalType": "uint256",
          "name": "startTime",
          "type": "uint256"
        },
        {
          "internalType": "uint256",
          "name": "rewards",
          "type": "uint256"
        },
        {
          "internalType": "uint256",
          "name": "lastClaimTime",
          "type": "uint256"
        }
      ],
      "stateMutability": "view",
      "type": "function"
    },
    {
      "inputs": [
        {
          "internalType": "address",
          "name": "",
          "type": "address"
        }
      ],
      "name": "totalStaked",
      "outputs": [
        {
          "internalType": "uint256",
          "name": "",
          "type": "uint256"
        }
      ],
      "stateMutability": "view",
      "type": "function"
    },
    {
      "inputs": [],
      "name": "totalStakedSupply",
      "outputs": [
        {
          "internalType": "uint256",
          "name": "",
          "type": "uint256"
        }
      ],
      "stateMutability": "view",
      "type": "function"
    },
    {
      "inputs": [
        {
          "internalType": "address",
          "name": "newOwner",
          "type": "address"
        }
      ],
      "name": "transferOwnership",
      "outputs": [],
      "stateMutability": "nonpayable",
      "type": "function"
    },
    {
      "inputs": [
        {
          "internalType": "uint256",
          "name": "stakeId",
          "type": "uint256"
        }
      ],
      "name": "unstake",
      "outputs": [],
      "stateMutability": "nonpayable",
      "type": "function"
    }
  ],
  "bytecode": "0x60806040523480156200001157600080fd5b50604051620019ff380380620019ff833981810160405281019062000037919062000242565b33600073ffffffffffffffffffffffffffffffffffffffff168173ffffffffffffffffffffffffffffffffffffffff1603620000ad5760006040517f1e4fbdf7000000000000000000000000000000000000000000000000000000008152600401620000a4919062000285565b60405180910390fd5b620000be816200011460201b60201c565b5080600160006101000a81548173ffffffffffffffffffffffffffffffffffffffff021916908373ffffffffffffffffffffffffffffffffffffffff160217905550651cd702e3189560058190555050620002a2565b60008060009054906101000a900473ffffffffffffffffffffffffffffffffffffffff169050816000806101000a81548173ffffffffffffffffffffffffffffffffffffffff021916908373ffffffffffffffffffffffffffffffffffffffff1602179055508173ffffffffffffffffffffffffffffffffffffffff168173ffffffffffffffffffffffffffffffffffffffff167f8be0079c531659141344cd1fd0a4f28419497f9722a3daafe3b4186f6b6457e060405160405180910390a35050565b600080fd5b600073ffffffffffffffffffffffffffffffffffffffff82169050919050565b60006200020a82620001dd565b9050919050565b6200021c81620001fd565b81146200022857600080fd5b50565b6000815190506200023c8162000211565b92915050565b6000602082840312156200025b576200025a620001d8565b5b60006200026b848285016200022b565b91505092915050565b6200027f81620001fd565b82525050565b60006020820190506200029c600083018462000274565b92915050565b61174d80620002b26000396000f3fe608060405234801561001057600080fd5b506004361061010b5760003560e01c80639bfd8d61116100a2578063b918ee2511610071578063b918ee2514610295578063bcdc3cfc146102b3578063cf57ee69146102d1578063e0c570ba14610301578063f2fde38b1461031f5761010b565b80639bfd8d61146101fd5780639e447fc61461022d578063a694fc3a14610249578063a8c478ba146102655761010b565b8063715018a6116100de578063715018a61461019957806378f337e7146101a35780637b0a47ee146101c15780638da5cb5b146101df5761010b565b806306947c54146101105780632e17de7814610140578063372500ab1461015c578063584b62a114610166575b600080fd5b61012a600480360381019061012591906111d0565b61033b565b604051610137919061121f565b60405180910390f35b61015a6004803603810190610155919061123a565b61040d565b005b610164610779565b005b610180600480360381019061017b91906111d0565b61097e565b6040516101909493929190611267565b60405180910390f35b6101a16109cb565b005b6101ab6109df565b6040516101b8919061130b565b60405180910390f35b6101c9610a05565b6040516101d6919061121f565b60405180910390f35b6101e7610a0b565b6040516101f49190611335565b60405180910390f35b61021760048036038101906102129190611350565b610a34565b604051610224919061121f565b60405180910390f35b6102476004803603810190610242919061123a565b610a4c565b005b610263600480360381019061025e919061123a565b610a95565b005b61027f600480360381019061027a9190611350565b610ceb565b60405161028c919061121f565b60405180910390f35b61029d610d73565b6040516102aa919061121f565b60405180910390f35b6102bb610d78565b6040516102c8919061121f565b60405180910390f35b6102eb60048036038101906102e69190611350565b610d7e565b6040516102f8919061121f565b60405180910390f35b610309610dca565b604051610316919061121f565b60405180910390f35b61033960048036038101906103349190611350565b610dd1565b005b600080600260008573ffffffffffffffffffffffffffffffffffffffff1673ffffffffffffffffffffffffffffffffffffffff168152602001908152602001600020838154811061038f5761038e61137d565b5b9060005260206000209060040201905060008160000154036103b5576000915050610407565b60008160030154426103c791906113db565b905060006a1a1601fc4ea7109e0000008260055485600001546103ea919061140f565b6103f4919061140f565b6103fe9190611480565b90508093505050505b92915050565b600260003373ffffffffffffffffffffffffffffffffffffffff1673ffffffffffffffffffffffffffffffffffffffff168152602001908152602001600020805490508110610491576040517f08c379a00000000000000000000000000000000000000000000000000000000081526004016104889061150e565b60405180910390fd5b6000600260003373ffffffffffffffffffffffffffffffffffffffff1673ffffffffffffffffffffffffffffffffffffffff16815260200190815260200160002082815481106104e4576104e361137d565b5b90600052602060002090600402019050600081600001541161053b576040517f08c379a00000000000000000000000000000000000000000000000000000000081526004016105329061157a565b60405180910390fd5b6000610547338461033b565b9050600082600001549050600081905062093a8084600101544261056b91906113db565b10156105b75760006064600a84610582919061140f565b61058c9190611480565b9050808361059a91906113db565b915080600460008282546105ae91906113db565b92505081905550505b6000846000018190555081600360003373ffffffffffffffffffffffffffffffffffffffff1673ffffffffffffffffffffffffffffffffffffffff168152602001908152602001600020600082825461061091906113db565b92505081905550816004600082825461062991906113db565b9250508190555061067d3382600160009054906101000a900473ffffffffffffffffffffffffffffffffffffffff1673ffffffffffffffffffffffffffffffffffffffff16610e579092919063ffffffff16565b6000831115610722576106d33384600160009054906101000a900473ffffffffffffffffffffffffffffffffffffffff1673ffffffffffffffffffffffffffffffffffffffff16610e579092919063ffffffff16565b3373ffffffffffffffffffffffffffffffffffffffff167f106f923f993c2149d49b4255ff723acafa1f2d94393f561d3eda32ae348f724184604051610719919061121f565b60405180910390a25b3373ffffffffffffffffffffffffffffffffffffffff167f7fc4727e062e336010f2c282598ef5f14facb3de68cf8195c2f23e1454b2b74e838760405161076a92919061159a565b60405180910390a25050505050565b6000805b600260003373ffffffffffffffffffffffffffffffffffffffff1673ffffffffffffffffffffffffffffffffffffffff1681526020019081526020016000208054905081101561089c576000600260003373ffffffffffffffffffffffffffffffffffffffff1673ffffffffffffffffffffffffffffffffffffffff168152602001908152602001600020828154811061081a5761081961137d565b5b90600052602060002090600402019050600081600001540361083c5750610889565b6000610848338461033b565b90506000811115610886578082600201600082825461086791906115c3565b92505081905550428260030181905550808461088391906115c3565b93505b50505b8080610894906115f7565b91505061077d565b50600081116108e0576040517f08c379a00000000000000000000000000000000000000000000000000000000081526004016108d79061168b565b60405180910390fd5b61092d3382600160009054906101000a900473ffffffffffffffffffffffffffffffffffffffff1673ffffffffffffffffffffffffffffffffffffffff16610e579092919063ffffffff16565b3373ffffffffffffffffffffffffffffffffffffffff167f106f923f993c2149d49b4255ff723acafa1f2d94393f561d3eda32ae348f724182604051610973919061121f565b60405180910390a250565b6002602052816000526040600020818154811061099a57600080fd5b9060005260206000209060040201600091509150508060000154908060010154908060020154908060030154905084565b6109d3610eaa565b6109dd6000610f31565b565b600160009054906101000a900473ffffffffffffffffffffffffffffffffffffffff1681565b60055481565b60008060009054906101000a900473ffffffffffffffffffffffffffffffffffffffff16905090565b60036020528060005260406000206000915090505481565b610a54610eaa565b806005819055507f41d466ebd06fb97e7786086ac8b69b7eb7da798592036251291d34e9791cde0181604051610a8a919061121f565b60405180910390a150565b60008111610ad8576040517f08c379a0000000000000000000000000000000000000000000000000000000008152600401610acf906116f7565b60405180910390fd5b610b27333083600160009054906101000a900473ffffffffffffffffffffffffffffffffffffffff1673ffffffffffffffffffffffffffffffffffffffff16610ff5909392919063ffffffff16565b600260003373ffffffffffffffffffffffffffffffffffffffff1673ffffffffffffffffffffffffffffffffffffffff16815260200190815260200160002060405180608001604052808381526020014281526020016000815260200142815250908060018154018082558091505060019003906000526020600020906004020160009091909190915060008201518160000155602082015181600101556040820151816002015560608201518160030155505080600360003373ffffffffffffffffffffffffffffffffffffffff1673ffffffffffffffffffffffffffffffffffffffff1681526020019081526020016000206000828254610c2a91906115c3565b925050819055508060046000828254610c4391906115c3565b925050819055503373ffffffffffffffffffffffffffffffffffffffff167f1449c6dd7851abc30abf37f57715f492010519147cc2652fbc38202c18a6ee90826001600260003373ffffffffffffffffffffffffffffffffffffffff1673ffffffffffffffffffffffffffffffffffffffff16815260200190815260200160002080549050610cd291906113db565b604051610ce092919061159a565b60405180910390a250565b6000806000905060005b600260008573ffffffffffffffffffffffffffffffffffffffff1673ffffffffffffffffffffffffffffffffffffffff16815260200190815260200160002080549050811015610d6957610d49848261033b565b82610d5491906115c3565b91508080610d61906115f7565b915050610cf5565b5080915050919050565b600a81565b60045481565b6000600260008373ffffffffffffffffffffffffffffffffffffffff1673ffffffffffffffffffffffffffffffffffffffff168152602001908152602001600020805490509050919050565b62093a8081565b610dd9610eaa565b600073ffffffffffffffffffffffffffffffffffffffff168173ffffffffffffffffffffffffffffffffffffffff1603610e4b5760006040517f1e4fbdf7000000000000000000000000000000000000000000000000000000008152600401610e429190611335565b60405180910390fd5b610e5481610f31565b50565b610e64838383600161104a565b610ea557826040517f5274afe7000000000000000000000000000000000000000000000000000000008152600401610e9c9190611335565b60405180910390fd5b505050565b610eb26110b4565b73ffffffffffffffffffffffffffffffffffffffff16610ed0610a0b565b73ffffffffffffffffffffffffffffffffffffffff1614610f2f57610ef36110b4565b6040517f118cdaa7000000000000000000000000000000000000000000000000000000008152600401610f269190611335565b60405180910390fd5b565b60008060009054906101000a900473ffffffffffffffffffffffffffffffffffffffff169050816000806101000a81548173ffffffffffffffffffffffffffffffffffffffff021916908373ffffffffffffffffffffffffffffffffffffffff1602179055508173ffffffffffffffffffffffffffffffffffffffff168173ffffffffffffffffffffffffffffffffffffffff167f8be0079c531659141344cd1fd0a4f28419497f9722a3daafe3b4186f6b6457e060405160405180910390a35050565b6110038484848460016110bc565b61104457836040517f5274afe700000000000000000000000000000000000000000000000000000000815260040161103b9190611335565b60405180910390fd5b50505050565b60008063a9059cbb60e01b90506040518160005260001960601c8616600452846024526020600060446000808b5af1925060016000511483166110a6578383151615611099573d6000823e3d81fd5b6000873b113d1516831692505b806040525050949350505050565b600033905090565b6000806323b872dd60e01b90506040518160005260001960601c871660045260001960601c8616602452846044526020600060646000808c5af192506001600051148316611123578383151615611116573d6000823e3d81fd5b6000883b113d1516831692505b806040526000606052505095945050505050565b600080fd5b600073ffffffffffffffffffffffffffffffffffffffff82169050919050565b60006111678261113c565b9050919050565b6111778161115c565b811461118257600080fd5b50565b6000813590506111948161116e565b92915050565b6000819050919050565b6111ad8161119a565b81146111b857600080fd5b50565b6000813590506111ca816111a4565b92915050565b600080604083850312156111e7576111e6611137565b5b60006111f585828601611185565b9250506020611206858286016111bb565b9150509250929050565b6112198161119a565b82525050565b60006020820190506112346000830184611210565b92915050565b6000602082840312156112505761124f611137565b5b600061125e848285016111bb565b91505092915050565b600060808201905061127c6000830187611210565b6112896020830186611210565b6112966040830185611210565b6112a36060830184611210565b95945050505050565b6000819050919050565b60006112d16112cc6112c78461113c565b6112ac565b61113c565b9050919050565b60006112e3826112b6565b9050919050565b60006112f5826112d8565b9050919050565b611305816112ea565b82525050565b600060208201905061132060008301846112fc565b92915050565b61132f8161115c565b82525050565b600060208201905061134a6000830184611326565b92915050565b60006020828403121561136657611365611137565b5b600061137484828501611185565b91505092915050565b7f4e487b7100000000000000000000000000000000000000000000000000000000600052603260045260246000fd5b7f4e487b7100000000000000000000000000000000000000000000000000000000600052601160045260246000fd5b60006113e68261119a565b91506113f18361119a565b9250828203905081811115611409576114086113ac565b5b92915050565b600061141a8261119a565b91506114258361119a565b92508282026114338161119a565b9150828204841483151761144a576114496113ac565b5b5092915050565b7f4e487b7100000000000000000000000000000000000000000000000000000000600052601260045260246000fd5b600061148b8261119a565b91506114968361119a565b9250826114a6576114a5611451565b5b828204905092915050565b600082825260208201905092915050565b7f496e76616c6964207374616b6520494400000000000000000000000000000000600082015250565b60006114f86010836114b1565b9150611503826114c2565b602082019050919050565b60006020820190508181036000830152611527816114eb565b9050919050565b7f416c726561647920756e7374616b656400000000000000000000000000000000600082015250565b60006115646010836114b1565b915061156f8261152e565b602082019050919050565b6000602082019050818103600083015261159381611557565b9050919050565b60006040820190506115af6000830185611210565b6115bc6020830184611210565b9392505050565b60006115ce8261119a565b91506115d98361119a565b92508282019050808211156115f1576115f06113ac565b5b92915050565b60006116028261119a565b91507fffffffffffffffffffffffffffffffffffffffffffffffffffffffffffffffff8203611634576116336113ac565b5b600182019050919050565b7f4e6f207265776172647320746f20636c61696d00000000000000000000000000600082015250565b60006116756013836114b1565b91506116808261163f565b602082019050919050565b600060208201905081810360008301526116a481611668565b9050919050565b7f43616e6e6f74207374616b652030000000000000000000000000000000000000600082015250565b60006116e1600e836114b1565b91506116ec826116ab565b602082019050919050565b60006020820190508181036000830152611710816116d4565b905091905056fea2646970667358221220b636006b85b9f3696ee0871048c013fe48db6ecde4e1f01b6aab4593534f1d9464736f6c63430008140033",
  "linkReferences": {},
  "deployedLinkReferences": {}
}