{"contracts/NexusStaking.sol":{"NexusStaking":{"abi":[{"inputs":[{"internalType":"address","name":"_nexusToken","type":"address"}],"stateMutability":"nonpayable","type":"constructor"},{"inputs":[{"internalType":"address","name":"owner","type":"address"}],"name":"OwnableInvalidOwner","type":"error"},{"inputs":[{"internalType":"address","name":"account","type":"address"}],"name":"OwnableUnauthorizedAccount","type":"error"},{"inputs":[{"internalType":"address","name":"token","type":"address"}],"name":"SafeERC20FailedOperation","type":"error"},{"anonymous":false,"inputs":[{"indexed":true,"internalType":"address","name":"previousOwner","type":"address"},{"indexed":true,"internalType":"address","name":"newOwner","type":"address"}],"name":"OwnershipTransferred","type":"event"},{"anonymous":false,"inputs":[{"indexed":true,"internalType":"address","name":"user","type":"address"},{"indexed":false,"internalType":"uint256","name":"reward","type":"uint256"}],"name":"RewardClaimed","type":"event"},{"anonymous":false,"inputs":[{"indexed":false,"internalType":"uint256","name":"newRate","type":"uint256"}],"name":"RewardRateUpdated","type":"event"},{"anonymous":false,"inputs":[{"indexed":true,"internalType":"address","name":"user","type":"address"},{"indexed":false,"internalType":"uint256","name":"amount","type":"uint256"},{"indexed":false,"internalType":"uint256","name":"stakeId","type":"uint256"}],"name":"Staked","type":"event"},{"anonymous":false,"inputs":[{"indexed":true,"internalType":"address","name":"user","type":"address"},{"indexed":false,"internalType":"uint256","name":"amount","type":"uint256"},{"indexed":false,"internalType":"uint256","name":"stakeId","type":"uint256"}],"name":"Unstaked","type":"event"},{"inputs":[],"name":"EARLY_WITHDRAWAL_PENALTY","outputs":[{"internalType":"uint256","name":"","type":"uint256"}],"stateMutability":"view","type":"function"},{"inputs":[],"name":"MIN_STAKE_DURATION","outputs":[{"internalType":"uint256","name":"","type":"uint256"}],"stateMutability":"view","type":"function"},{"inputs":[{"internalType":"address","name":"user","type":"address"},{"internalType":"uint256","name":"stakeId","type":"uint256"}],"name":"calculatePendingReward","outputs":[{"internalType":"uint256","name":"","type":"uint256"}],"stateMutability":"view","type":"function"},{"inputs":[],"name":"claimRewards","outputs":[],"stateMutability":"nonpayable","type":"function"},{"inputs":[{"internalType":"address","name":"user","type":"address"}],"name":"getStakeCount","outputs":[{"internalType":"uint256","name":"","type":"uint256"}],"stateMutability":"view","type":"function"},{"inputs":[{"internalType":"address","name":"user","type":"address"}],"name":"getTotalPendingRewards","outputs":[{"internalType":"uint256","name":"","type":"uint256"}],"stateMutability":"view","type":"function"},{"inputs":[],"name":"nexusToken","outputs":[{"internalType":"contract IERC20","name":"","type":"address"}],"stateMutability":"view","type":"function"},{"inputs":[],"name":"owner","outputs":[{"internalType":"address","name":"","type":"address"}],"stateMutability":"view","type":"function"},{"inputs":[],"name":"renounceOwnership","outputs":[],"stateMutability":"nonpayable","type":"function"},{"inputs":[],"name":"rewardRate","outputs":[{"internalType":"uint256","name":"","type":"uint256"}],"stateMutability":"view","type":"function"},{"inputs":[{"internalType":"uint256","name":"newRate","type":"uint256"}],"name":"setRewardRate","outputs":[],"stateMutability":"nonpayable","type":"function"},{"inputs":[{"internalType":"uint256","name":"amount","type":"uint256"}],"name":"stake","outputs":[],"stateMutability":"nonpayable","type":"function"},{"inputs":[{"internalType":"address","name":"","type":"address"},{"internalType":"uint256","name":"","type":"uint256"}],"name":"stakes","outputs":[{"internalType":"uint256","name":"amount","type":"uint256"},{"internalType":"uint256","name":"startTime","type":"uint256"},{"internalType":"uint256","name":"rewards","type":"uint256"},{"internalType":"uint256","name":"lastClaimTime","type":"uint256"}],"stateMutability":"view","type":"function"},{"inputs":[{"internalType":"address","name":"","type":"address"}],"name":"totalStaked","outputs":[{"internalType":"uint256","name":"","type":"uint256"}],"stateMutability":"view","type":"function"},{"inputs":[],"name":"totalStakedSupply","outputs":[{"internalType":"uint256","name":"","type":"uint256"}],"stateMutability":"view","type":"function"},{"inputs":[{"internalType":"address","name":"newOwner","type":"address"}],"name":"transferOwnership","outputs":[],"stateMutability":"nonpayable","type":"function"},{"inputs":[{"internalType":"uint256","name":"stakeId","type":"uint256"}],"name":"unstake","outputs":[],"stateMutability":"nonpayable","type":"function"}],"evm":{"bytecode":{"linkReferences":{},"object":"60806040523480156200001157600080fd5b50604051620019ff380380620019ff833981810160405281019062000037919062000242565b33600073ffffffffffffffffffffffffffffffffffffffff168173ffffffffffffffffffffffffffffffffffffffff1603620000ad5760006040517f1e4fbdf7000000000000000000000000000000000000000000000000000000008152600401620000a4919062000285565b60405180910390fd5b620000be816200011460201b60201c565b5080600160006101000a81548173ffffffffffffffffffffffffffffffffffffffff021916908373ffffffffffffffffffffffffffffffffffffffff160217905550651cd702e3189560058190555050620002a2565b60008060009054906101000a900473ffffffffffffffffffffffffffffffffffffffff169050816000806101000a81548173ffffffffffffffffffffffffffffffffffffffff021916908373ffffffffffffffffffffffffffffffffffffffff1602179055508173ffffffffffffffffffffffffffffffffffffffff168173ffffffffffffffffffffffffffffffffffffffff167f8be0079c531659141344cd1fd0a4f28419497f9722a3daafe3b4186f6b6457e060405160405180910390a35050565b600080fd5b600073ffffffffffffffffffffffffffffffffffffffff82169050919050565b60006200020a82620001dd565b9050919050565b6200021c81620001fd565b81146200022857600080fd5b50565b6000815190506200023c8162000211565b92915050565b6000602082840312156200025b576200025a620001d8565b5b60006200026b848285016200022b565b91505092915050565b6200027f81620001fd565b82525050565b60006020820190506200029c600083018462000274565b92915050565b61174d80620002b26000396000f3fe608060405234801561001057600080fd5b506004361061010b5760003560e01c80639bfd8d61116100a2578063b918ee2511610071578063b918ee2514610295578063bcdc3cfc146102b3578063cf57ee69146102d1578063e0c570ba14610301578063f2fde38b1461031f5761010b565b80639bfd8d61146101fd5780639e447fc61461022d578063a694fc3a14610249578063a8c478ba146102655761010b565b8063715018a6116100de578063715018a61461019957806378f337e7146101a35780637b0a47ee146101c15780638da5cb5b146101df5761010b565b806306947c54146101105780632e17de7814610140578063372500ab1461015c578063584b62a114610166575b600080fd5b61012a600480360381019061012591906111d0565b61033b565b604051610137919061121f565b60405180910390f35b61015a6004803603810190610155919061123a565b61040d565b005b610164610779565b005b610180600480360381019061017b91906111d0565b61097e565b6040516101909493929190611267565b60405180910390f35b6101a16109cb565b005b6101ab6109df565b6040516101b8919061130b565b60405180910390f35b6101c9610a05565b6040516101d6919061121f565b60405180910390f35b6101e7610a0b565b6040516101f49190611335565b60405180910390f35b61021760048036038101906102129190611350565b610a34565b604051610224919061121f565b60405180910390f35b6102476004803603810190610242919061123a565b610a4c565b005b610263600480360381019061025e919061123a565b610a95565b005b61027f600480360381019061027a9190611350565b610ceb565b60405161028c919061121f565b60405180910390f35b61029d610d73565b6040516102aa919061121f565b60405180910390f35b6102bb610d78565b6040516102c8919061121f565b60405180910390f35b6102eb60048036038101906102e69190611350565b610d7e565b6040516102f8919061121f565b60405180910390f35b610309610dca565b604051610316919061121f565b60405180910390f35b61033960048036038101906103349190611350565b610dd1565b005b600080600260008573ffffffffffffffffffffffffffffffffffffffff1673ffffffffffffffffffffffffffffffffffffffff168152602001908152602001600020838154811061038f5761038e61137d565b5b9060005260206000209060040201905060008160000154036103b5576000915050610407565b60008160030154426103c791906113db565b905060006a1a1601fc4ea7109e0000008260055485600001546103ea919061140f565b6103f4919061140f565b6103fe9190611480565b90508093505050505b92915050565b600260003373ffffffffffffffffffffffffffffffffffffffff1673ffffffffffffffffffffffffffffffffffffffff168152602001908152602001600020805490508110610491576040517f08c379a00000000000000000000000000000000000000000000000000000000081526004016104889061150e565b60405180910390fd5b6000600260003373ffffffffffffffffffffffffffffffffffffffff1673ffffffffffffffffffffffffffffffffffffffff16815260200190815260200160002082815481106104e4576104e361137d565b5b90600052602060002090600402019050600081600001541161053b576040517f08c379a00000000000000000000000000000000000000000000000000000000081526004016105329061157a565b60405180910390fd5b6000610547338461033b565b9050600082600001549050600081905062093a8084600101544261056b91906113db565b10156105b75760006064600a84610582919061140f565b61058c9190611480565b9050808361059a91906113db565b915080600460008282546105ae91906113db565b92505081905550505b6000846000018190555081600360003373ffffffffffffffffffffffffffffffffffffffff1673ffffffffffffffffffffffffffffffffffffffff168152602001908152602001600020600082825461061091906113db565b92505081905550816004600082825461062991906113db565b9250508190555061067d3382600160009054906101000a900473ffffffffffffffffffffffffffffffffffffffff1673ffffffffffffffffffffffffffffffffffffffff16610e579092919063ffffffff16565b6000831115610722576106d33384600160009054906101000a900473ffffffffffffffffffffffffffffffffffffffff1673ffffffffffffffffffffffffffffffffffffffff16610e579092919063ffffffff16565b3373ffffffffffffffffffffffffffffffffffffffff167f106f923f993c2149d49b4255ff723acafa1f2d94393f561d3eda32ae348f724184604051610719919061121f565b60405180910390a25b3373ffffffffffffffffffffffffffffffffffffffff167f7fc4727e062e336010f2c282598ef5f14facb3de68cf8195c2f23e1454b2b74e838760405161076a92919061159a565b60405180910390a25050505050565b6000805b600260003373ffffffffffffffffffffffffffffffffffffffff1673ffffffffffffffffffffffffffffffffffffffff1681526020019081526020016000208054905081101561089c576000600260003373ffffffffffffffffffffffffffffffffffffffff1673ffffffffffffffffffffffffffffffffffffffff168152602001908152602001600020828154811061081a5761081961137d565b5b90600052602060002090600402019050600081600001540361083c5750610889565b6000610848338461033b565b90506000811115610886578082600201600082825461086791906115c3565b92505081905550428260030181905550808461088391906115c3565b93505b50505b8080610894906115f7565b91505061077d565b50600081116108e0576040517f08c379a00000000000000000000000000000000000000000000000000000000081526004016108d79061168b565b60405180910390fd5b61092d3382600160009054906101000a900473ffffffffffffffffffffffffffffffffffffffff1673ffffffffffffffffffffffffffffffffffffffff16610e579092919063ffffffff16565b3373ffffffffffffffffffffffffffffffffffffffff167f106f923f993c2149d49b4255ff723acafa1f2d94393f561d3eda32ae348f724182604051610973919061121f565b60405180910390a250565b6002602052816000526040600020818154811061099a57600080fd5b9060005260206000209060040201600091509150508060000154908060010154908060020154908060030154905084565b6109d3610eaa565b6109dd6000610f31565b565b600160009054906101000a900473ffffffffffffffffffffffffffffffffffffffff1681565b60055481565b60008060009054906101000a900473ffffffffffffffffffffffffffffffffffffffff16905090565b60036020528060005260406000206000915090505481565b610a54610eaa565b806005819055507f41d466ebd06fb97e7786086ac8b69b7eb7da798592036251291d34e9791cde0181604051610a8a919061121f565b60405180910390a150565b60008111610ad8576040517f08c379a0000000000000000000000000000000000000000000000000000000008152600401610acf906116f7565b60405180910390fd5b610b27333083600160009054906101000a900473ffffffffffffffffffffffffffffffffffffffff1673ffffffffffffffffffffffffffffffffffffffff16610ff5909392919063ffffffff16565b600260003373ffffffffffffffffffffffffffffffffffffffff1673ffffffffffffffffffffffffffffffffffffffff16815260200190815260200160002060405180608001604052808381526020014281526020016000815260200142815250908060018154018082558091505060019003906000526020600020906004020160009091909190915060008201518160000155602082015181600101556040820151816002015560608201518160030155505080600360003373ffffffffffffffffffffffffffffffffffffffff1673ffffffffffffffffffffffffffffffffffffffff1681526020019081526020016000206000828254610c2a91906115c3565b925050819055508060046000828254610c4391906115c3565b925050819055503373ffffffffffffffffffffffffffffffffffffffff167f1449c6dd7851abc30abf37f57715f492010519147cc2652fbc38202c18a6ee90826001600260003373ffffffffffffffffffffffffffffffffffffffff1673ffffffffffffffffffffffffffffffffffffffff16815260200190815260200160002080549050610cd291906113db565b604051610ce092919061159a565b60405180910390a250565b6000806000905060005b600260008573ffffffffffffffffffffffffffffffffffffffff1673ffffffffffffffffffffffffffffffffffffffff16815260200190815260200160002080549050811015610d6957610d49848261033b565b82610d5491906115c3565b91508080610d61906115f7565b915050610cf5565b5080915050919050565b600a81565b60045481565b6000600260008373ffffffffffffffffffffffffffffffffffffffff1673ffffffffffffffffffffffffffffffffffffffff168152602001908152602001600020805490509050919050565b62093a8081565b610dd9610eaa565b600073ffffffffffffffffffffffffffffffffffffffff168173ffffffffffffffffffffffffffffffffffffffff1603610e4b5760006040517f1e4fbdf7000000000000000000000000000000000000000000000000000000008152600401610e429190611335565b60405180910390fd5b610e5481610f31565b50565b610e64838383600161104a565b610ea557826040517f5274afe7000000000000000000000000000000000000000000000000000000008152600401610e9c9190611335565b60405180910390fd5b505050565b610eb26110b4565b73ffffffffffffffffffffffffffffffffffffffff16610ed0610a0b565b73ffffffffffffffffffffffffffffffffffffffff1614610f2f57610ef36110b4565b6040517f118cdaa7000000000000000000000000000000000000000000000000000000008152600401610f269190611335565b60405180910390fd5b565b60008060009054906101000a900473ffffffffffffffffffffffffffffffffffffffff169050816000806101000a81548173ffffffffffffffffffffffffffffffffffffffff021916908373ffffffffffffffffffffffffffffffffffffffff1602179055508173ffffffffffffffffffffffffffffffffffffffff168173ffffffffffffffffffffffffffffffffffffffff167f8be0079c531659141344cd1fd0a4f28419497f9722a3daafe3b4186f6b6457e060405160405180910390a35050565b6110038484848460016110bc565b61104457836040517f5274afe700000000000000000000000000000000000000000000000000000000815260040161103b9190611335565b60405180910390fd5b50505050565b60008063a9059cbb60e01b90506040518160005260001960601c8616600452846024526020600060446000808b5af1925060016000511483166110a6578383151615611099573d6000823e3d81fd5b6000873b113d1516831692505b806040525050949350505050565b600033905090565b6000806323b872dd60e01b90506040518160005260001960601c871660045260001960601c8616602452846044526020600060646000808c5af192506001600051148316611123578383151615611116573d6000823e3d81fd5b6000883b113d1516831692505b806040526000606052505095945050505050565b600080fd5b600073ffffffffffffffffffffffffffffffffffffffff82169050919050565b60006111678261113c565b9050919050565b6111778161115c565b811461118257600080fd5b50565b6000813590506111948161116e565b92915050565b6000819050919050565b6111ad8161119a565b81146111b857600080fd5b50565b6000813590506111ca816111a4565b92915050565b600080604083850312156111e7576111e6611137565b5b60006111f585828601611185565b9250506020611206858286016111bb565b9150509250929050565b6112198161119a565b82525050565b60006020820190506112346000830184611210565b92915050565b6000602082840312156112505761124f611137565b5b600061125e848285016111bb565b91505092915050565b600060808201905061127c6000830187611210565b6112896020830186611210565b6112966040830185611210565b6112a36060830184611210565b95945050505050565b6000819050919050565b60006112d16112cc6112c78461113c565b6112ac565b61113c565b9050919050565b60006112e3826112b6565b9050919050565b60006112f5826112d8565b9050919050565b611305816112ea565b82525050565b600060208201905061132060008301846112fc565b92915050565b61132f8161115c565b82525050565b600060208201905061134a6000830184611326565b92915050565b60006020828403121561136657611365611137565b5b600061137484828501611185565b91505092915050565b7f4e487b7100000000000000000000000000000000000000000000000000000000600052603260045260246000fd5b7f4e487b7100000000000000000000000000000000000000000000000000000000600052601160045260246000fd5b60006113e68261119a565b91506113f18361119a565b9250828203905081811115611409576114086113ac565b5b92915050565b600061141a8261119a565b91506114258361119a565b92508282026114338161119a565b9150828204841483151761144a576114496113ac565b5b5092915050565b7f4e487b7100000000000000000000000000000000000000000000000000000000600052601260045260246000fd5b600061148b8261119a565b91506114968361119a565b9250826114a6576114a5611451565b5b828204905092915050565b600082825260208201905092915050565b7f496e76616c6964207374616b6520494400000000000000000000000000000000600082015250565b60006114f86010836114b1565b9150611503826114c2565b602082019050919050565b60006020820190508181036000830152611527816114eb565b9050919050565b7f416c726561647920756e7374616b656400000000000000000000000000000000600082015250565b60006115646010836114b1565b915061156f8261152e565b602082019050919050565b6000602082019050818103600083015261159381611557565b9050919050565b60006040820190506115af6000830185611210565b6115bc6020830184611210565b9392505050565b60006115ce8261119a565b91506115d98361119a565b92508282019050808211156115f1576115f06113ac565b5b92915050565b60006116028261119a565b91507fffffffffffffffffffffffffffffffffffffffffffffffffffffffffffffffff8203611634576116336113ac565b5b600182019050919050565b7f4e6f207265776172647320746f20636c61696d00000000000000000000000000600082015250565b60006116756013836114b1565b91506116808261163f565b602082019050919050565b600060208201905081810360008301526116a481611668565b9050919050565b7f43616e6e6f74207374616b652030000000000000000000000000000000000000600082015250565b60006116e1600e836114b1565b91506116ec826116ab565b602082019050919050565b60006020820190508181036000830152611710816116d4565b905091905056fea2646970667358221220b636006b85b9f3696ee0871048c013fe48db6ecde4e1f01b6aab4593534f1d9464736f6c63430008140033","opcodes":"PUSH1 0x80 PUSH1 0x40 MSTORE CALLVALUE DUP1 ISZERO PUSH3 0x11 JUMPI PUSH1 0x0 DUP1 REVERT JUMPDEST POP PUSH1 0x40 MLOAD PUSH3 0x19FF CODESIZE SUB DUP1 PUSH3 0x19FF DUP4 CODECOPY DUP2 DUP2 ADD PUSH1 0x40 MSTORE DUP2 ADD SWAP1 PUSH3 0x37 SWAP2 SWAP1 PUSH3 0x242 JUMP JUMPDEST CALLER PUSH1 0x0 PUSH20 0xFFFFFFFFFFFFFFFFFFFFFFFFFFFFFFFFFFFFFFFF AND DUP2 PUSH20 0xFFFFFFFFFFFFFFFFFFFFFFFFFFFFFFFFFFFFFFFF AND SUB PUSH3 0xAD JUMPI PUSH1 0x0 PUSH1 0x40 MLOAD PUSH32 0x1E4FBDF700000000000000000000000000000000000000000000000000000000 DUP2 MSTORE PUSH1 0x4 ADD PUSH3 0xA4 SWAP2 SWAP1 PUSH3 0x285 JUMP JUMPDEST PUSH1 0x40 MLOAD DUP1 SWAP2 SUB SWAP1 REVERT JUMPDEST PUSH3 0xBE DUP2 PUSH3 0x114 PUSH1 0x20 SHL PUSH1 0x20 SHR JUMP JUMPDEST POP DUP1 PUSH1 0x1 PUSH1 0x0 PUSH2 0x100 EXP DUP2 SLOAD DUP2 PUSH20 0xFFFFFFFFFFFFFFFFFFFFFFFFFFFFFFFFFFFFFFFF MUL NOT AND SWAP1 DUP4 PUSH20 0xFFFFFFFFFFFFFFFFFFFFFFFFFFFFFFFFFFFFFFFF AND MUL OR SWAP1 SSTORE POP PUSH6 0x1CD702E31895 PUSH1 0x5 DUP2 SWAP1 SSTORE POP POP PUSH3 0x2A2 JUMP JUMPDEST PUSH1 0x0 DUP1 PUSH1 0x0 SWAP1 SLOAD SWAP1 PUSH2 0x100 EXP SWAP1 DIV PUSH20 0xFFFFFFFFFFFFFFFFFFFFFFFFFFFFFFFFFFFFFFFF AND SWAP1 POP DUP2 PUSH1 0x0 DUP1 PUSH2 0x100 EXP DUP2 SLOAD DUP2 PUSH20 0xFFFFFFFFFFFFFFFFFFFFFFFFFFFFFFFFFFFFFFFF MUL NOT AND SWAP1 DUP4 PUSH20 0xFFFFFFFFFFFFFFFFFFFFFFFFFFFFFFFFFFFFFFFF AND MUL OR SWAP1 SSTORE POP DUP2 PUSH20 0xFFFFFFFFFFFFFFFFFFFFFFFFFFFFFFFFFFFFFFFF AND DUP2 PUSH20 0xFFFFFFFFFFFFFFFFFFFFFFFFFFFFFFFFFFFFFFFF AND PUSH32 0x8BE0079C531659141344CD1FD0A4F28419497F9722A3DAAFE3B4186F6B6457E0 PUSH1 0x40 MLOAD PUSH1 0x40 MLOAD DUP1 SWAP2 SUB SWAP1 LOG3 POP POP JUMP JUMPDEST PUSH1 0x0 DUP1 REVERT JUMPDEST PUSH1 0x0 PUSH20 0xFFFFFFFFFFFFFFFFFFFFFFFFFFFFFFFFFFFFFFFF DUP3 AND SWAP1 POP SWAP2 SWAP1 POP JUMP JUMPDEST PUSH1 0x0 PUSH3 0x20A DUP3 PUSH3 0x1DD JUMP JUMPDEST SWAP1 POP SWAP2 SWAP1 POP JUMP JUMPDEST PUSH3 0x21C DUP2 PUSH3 0x1FD JUMP JUMPDEST DUP2 EQ PUSH3 0x228 JUMPI PUSH1 0x0 DUP1 REVERT JUMPDEST POP JUMP JUMPDEST PUSH1 0x0 DUP2 MLOAD SWAP1 POP PUSH3 0x23C DUP2 PUSH3 0x211 JUMP JUMPDEST SWAP3 SWAP2 POP POP JUMP JUMPDEST PUSH1 0x0 PUSH1 0x20 DUP3 DUP5 SUB SLT ISZERO PUSH3 0x25B JUMPI PUSH3 0x25A PUSH3 0x1D8 JUMP JUMPDEST JUMPDEST PUSH1 0x0 PUSH3 0x26B DUP5 DUP3 DUP6 ADD PUSH3 0x22B JUMP JUMPDEST SWAP2 POP POP SWAP3 SWAP2 POP POP JUMP JUMPDEST PUSH3 0x27F DUP2 PUSH3 0x1FD JUMP JUMPDEST DUP3 MSTORE POP POP JUMP JUMPDEST PUSH1 0x0 PUSH1 0x20 DUP3 ADD SWAP1 POP PUSH3 0x29C PUSH1 0x0 DUP4 ADD DUP5 PUSH3 0x274 JUMP JUMPDEST SWAP3 SWAP2 POP POP JUMP JUMPDEST PUSH2 0x174D DUP1 PUSH3 0x2B2 PUSH1 0x0 CODECOPY PUSH1 0x0 RETURN INVALID PUSH1 0x80 PUSH1 0x40 MSTORE CALLVALUE DUP1 ISZERO PUSH2 0x10 JUMPI PUSH1 0x0 DUP1 REVERT JUMPDEST POP PUSH1 0x4 CALLDATASIZE LT PUSH2 0x10B JUMPI PUSH1 0x0 CALLDATALOAD PUSH1 0xE0 SHR DUP1 PUSH4 0x9BFD8D61 GT PUSH2 0xA2 JUMPI DUP1 PUSH4 0xB918EE25 GT PUSH2 0x71 JUMPI DUP1 PUSH4 0xB918EE25 EQ PUSH2 0x295 JUMPI DUP1 PUSH4 0xBCDC3CFC EQ PUSH2 0x2B3 JUMPI DUP1 PUSH4 0xCF57EE69 EQ PUSH2 0x2D1 JUMPI DUP1 PUSH4 0xE0C570BA EQ PUSH2 0x301 JUMPI DUP1 PUSH4 0xF2FDE38B EQ PUSH2 0x31F JUMPI PUSH2 0x10B JUMP JUMPDEST DUP1 PUSH4 0x9BFD8D61 EQ PUSH2 0x1FD JUMPI DUP1 PUSH4 0x9E447FC6 EQ PUSH2 0x22D JUMPI DUP1 PUSH4 0xA694FC3A EQ PUSH2 0x249 JUMPI DUP1 PUSH4 0xA8C478BA EQ PUSH2 0x265 JUMPI PUSH2 0x10B JUMP JUMPDEST DUP1 PUSH4 0x715018A6 GT PUSH2 0xDE JUMPI DUP1 PUSH4 0x715018A6 EQ PUSH2 0x199 JUMPI DUP1 PUSH4 0x78F337E7 EQ PUSH2 0x1A3 JUMPI DUP1 PUSH4 0x7B0A47EE EQ PUSH2 0x1C1 JUMPI DUP1 PUSH4 0x8DA5CB5B EQ PUSH2 0x1DF JUMPI PUSH2 0x10B JUMP JUMPDEST DUP1 PUSH4 0x6947C54 EQ PUSH2 0x110 JUMPI DUP1 PUSH4 0x2E17DE78 EQ PUSH2 0x140 JUMPI DUP1 PUSH4 0x372500AB EQ PUSH2 0x15C JUMPI DUP1 PUSH4 0x584B62A1 EQ PUSH2 0x166 JUMPI JUMPDEST PUSH1 0x0 DUP1 REVERT JUMPDEST PUSH2 0x12A PUSH1 0x4 DUP1 CALLDATASIZE SUB DUP2 ADD SWAP1 PUSH2 0x125 SWAP2 SWAP1 PUSH2 0x11D0 JUMP JUMPDEST PUSH2 0x33B JUMP JUMPDEST PUSH1 0x40 MLOAD PUSH2 0x137 SWAP2 SWAP1 PUSH2 0x121F JUMP JUMPDEST PUSH1 0x40 MLOAD DUP1 SWAP2 SUB SWAP1 RETURN JUMPDEST PUSH2 0x15A PUSH1 0x4 DUP1 CALLDATASIZE SUB DUP2 ADD SWAP1 PUSH2 0x155 SWAP2 SWAP1 PUSH2 0x123A JUMP JUMPDEST PUSH2 0x40D JUMP JUMPDEST STOP JUMPDEST PUSH2 0x164 PUSH2 0x779 JUMP JUMPDEST STOP JUMPDEST PUSH2 0x180 PUSH1 0x4 DUP1 CALLDATASIZE SUB DUP2 ADD SWAP1 PUSH2 0x17B SWAP2 SWAP1 PUSH2 0x11D0 JUMP JUMPDEST PUSH2 0x97E JUMP JUMPDEST PUSH1 0x40 MLOAD PUSH2 0x190 SWAP5 SWAP4 SWAP3 SWAP2 SWAP1 PUSH2 0x1267 JUMP JUMPDEST PUSH1 0x40 MLOAD DUP1 SWAP2 SUB SWAP1 RETURN JUMPDEST PUSH2 0x1A1 PUSH2 0x9CB JUMP JUMPDEST STOP JUMPDEST PUSH2 0x1AB PUSH2 0x9DF JUMP JUMPDEST PUSH1 0x40 MLOAD PUSH2 0x1B8 SWAP2 SWAP1 PUSH2 0x130B JUMP JUMPDEST PUSH1 0x40 MLOAD DUP1 SWAP2 SUB SWAP1 RETURN JUMPDEST PUSH2 0x1C9 PUSH2 0xA05 JUMP JUMPDEST PUSH1 0x40 MLOAD PUSH2 0x1D6 SWAP2 SWAP1 PUSH2 0x121F JUMP JUMPDEST PUSH1 0x40 MLOAD DUP1 SWAP2 SUB SWAP1 RETURN JUMPDEST PUSH2 0x1E7 PUSH2 0xA0B JUMP JUMPDEST PUSH1 0x40 MLOAD PUSH2 0x1F4 SWAP2 SWAP1 PUSH2 0x1335 JUMP JUMPDEST PUSH1 0x40 MLOAD DUP1 SWAP2 SUB SWAP1 RETURN JUMPDEST PUSH2 0x217 PUSH1 0x4 DUP1 CALLDATASIZE SUB DUP2 ADD SWAP1 PUSH2 0x212 SWAP2 SWAP1 PUSH2 0x1350 JUMP JUMPDEST PUSH2 0xA34 JUMP JUMPDEST PUSH1 0x40 MLOAD PUSH2 0x224 SWAP2 SWAP1 PUSH2 0x121F JUMP JUMPDEST PUSH1 0x40 MLOAD DUP1 SWAP2 SUB SWAP1 RETURN JUMPDEST PUSH2 0x247 PUSH1 0x4 DUP1 CALLDATASIZE SUB DUP2 ADD SWAP1 PUSH2 0x242 SWAP2 SWAP1 PUSH2 0x123A JUMP JUMPDEST PUSH2 0xA4C JUMP JUMPDEST STOP JUMPDEST PUSH2 0x263 PUSH1 0x4 DUP1 CALLDATASIZE SUB DUP2 ADD SWAP1 PUSH2 0x25E SWAP2 SWAP1 PUSH2 0x123A JUMP JUMPDEST PUSH2 0xA95 JUMP JUMPDEST STOP JUMPDEST PUSH2 0x27F PUSH1 0x4 DUP1 CALLDATASIZE SUB DUP2 ADD SWAP1 PUSH2 0x27A SWAP2 SWAP1 PUSH2 0x1350 JUMP JUMPDEST PUSH2 0xCEB JUMP JUMPDEST PUSH1 0x40 MLOAD PUSH2 0x28C SWAP2 SWAP1 PUSH2 0x121F JUMP JUMPDEST PUSH1 0x40 MLOAD DUP1 SWAP2 SUB SWAP1 RETURN JUMPDEST PUSH2 0x29D PUSH2 0xD73 JUMP JUMPDEST PUSH1 0x40 MLOAD PUSH2 0x2AA SWAP2 SWAP1 PUSH2 0x121F JUMP JUMPDEST PUSH1 0x40 MLOAD DUP1 SWAP2 SUB SWAP1 RETURN JUMPDEST PUSH2 0x2BB PUSH2 0xD78 JUMP JUMPDEST PUSH1 0x40 MLOAD PUSH2 0x2C8 SWAP2 SWAP1 PUSH2 0x121F JUMP JUMPDEST PUSH1 0x40 MLOAD DUP1 SWAP2 SUB SWAP1 RETURN JUMPDEST PUSH2 0x2EB PUSH1 0x4 DUP1 CALLDATASIZE SUB DUP2 ADD SWAP1 PUSH2 0x2E6 SWAP2 SWAP1 PUSH2 0x1350 JUMP JUMPDEST PUSH2 0xD7E JUMP JUMPDEST PUSH1 0x40 MLOAD PUSH2 0x2F8 SWAP2 SWAP1 PUSH2 0x121F JUMP JUMPDEST PUSH1 0x40 MLOAD DUP1 SWAP2 SUB SWAP1 RETURN JUMPDEST PUSH2 0x309 PUSH2 0xDCA JUMP JUMPDEST PUSH1 0x40 MLOAD PUSH2 0x316 SWAP2 SWAP1 PUSH2 0x121F JUMP JUMPDEST PUSH1 0x40 MLOAD DUP1 SWAP2 SUB SWAP1 RETURN JUMPDEST PUSH2 0x339 PUSH1 0x4 DUP1 CALLDATASIZE SUB DUP2 ADD SWAP1 PUSH2 0x334 SWAP2 SWAP1 PUSH2 0x1350 JUMP JUMPDEST PUSH2 0xDD1 JUMP JUMPDEST STOP JUMPDEST PUSH1 0x0 DUP1 PUSH1 0x2 PUSH1 0x0 DUP6 PUSH20 0xFFFFFFFFFFFFFFFFFFFFFFFFFFFFFFFFFFFFFFFF AND PUSH20 0xFFFFFFFFFFFFFFFFFFFFFFFFFFFFFFFFFFFFFFFF AND DUP2 MSTORE PUSH1 0x20 ADD SWAP1 DUP2 MSTORE PUSH1 0x20 ADD PUSH1 0x0 KECCAK256 DUP4 DUP2 SLOAD DUP2 LT PUSH2 0x38F JUMPI PUSH2 0x38E PUSH2 0x137D JUMP JUMPDEST JUMPDEST SWAP1 PUSH1 0x0 MSTORE PUSH1 0x20 PUSH1 0x0 KECCAK256 SWAP1 PUSH1 0x4 MUL ADD SWAP1 POP PUSH1 0x0 DUP2 PUSH1 0x0 ADD SLOAD SUB PUSH2 0x3B5 JUMPI PUSH1 0x0 SWAP2 POP POP PUSH2 0x407 JUMP JUMPDEST PUSH1 0x0 DUP2 PUSH1 0x3 ADD SLOAD TIMESTAMP PUSH2 0x3C7 SWAP2 SWAP1 PUSH2 0x13DB JUMP JUMPDEST SWAP1 POP PUSH1 0x0 PUSH11 0x1A1601FC4EA7109E000000 DUP3 PUSH1 0x5 SLOAD DUP6 PUSH1 0x0 ADD SLOAD PUSH2 0x3EA SWAP2 SWAP1 PUSH2 0x140F JUMP JUMPDEST PUSH2 0x3F4 SWAP2 SWAP1 PUSH2 0x140F JUMP JUMPDEST PUSH2 0x3FE SWAP2 SWAP1 PUSH2 0x1480 JUMP JUMPDEST SWAP1 POP DUP1 SWAP4 POP POP POP POP JUMPDEST SWAP3 SWAP2 POP POP JUMP JUMPDEST PUSH1 0x2 PUSH1 0x0 CALLER PUSH20 0xFFFFFFFFFFFFFFFFFFFFFFFFFFFFFFFFFFFFFFFF AND PUSH20 0xFFFFFFFFFFFFFFFFFFFFFFFFFFFFFFFFFFFFFFFF AND DUP2 MSTORE PUSH1 0x20 ADD SWAP1 DUP2 MSTORE PUSH1 0x20 ADD PUSH1 0x0 KECCAK256 DUP1 SLOAD SWAP1 POP DUP2 LT PUSH2 0x491 JUMPI PUSH1 0x40 MLOAD PUSH32 0x8C379A000000000000000000000000000000000000000000000000000000000 DUP2 MSTORE PUSH1 0x4 ADD PUSH2 0x488 SWAP1 PUSH2 0x150E JUMP JUMPDEST PUSH1 0x40 MLOAD DUP1 SWAP2 SUB SWAP1 REVERT JUMPDEST PUSH1 0x0 PUSH1 0x2 PUSH1 0x0 CALLER PUSH20 0xFFFFFFFFFFFFFFFFFFFFFFFFFFFFFFFFFFFFFFFF AND PUSH20 0xFFFFFFFFFFFFFFFFFFFFFFFFFFFFFFFFFFFFFFFF AND DUP2 MSTORE PUSH1 0x20 ADD SWAP1 DUP2 MSTORE PUSH1 0x20 ADD PUSH1 0x0 KECCAK256 DUP3 DUP2 SLOAD DUP2 LT PUSH2 0x4E4 JUMPI PUSH2 0x4E3 PUSH2 0x137D JUMP JUMPDEST JUMPDEST SWAP1 PUSH1 0x0 MSTORE PUSH1 0x20 PUSH1 0x0 KECCAK256 SWAP1 PUSH1 0x4 MUL ADD SWAP1 POP PUSH1 0x0 DUP2 PUSH1 0x0 ADD SLOAD GT PUSH2 0x53B JUMPI PUSH1 0x40 MLOAD PUSH32 0x8C379A000000000000000000000000000000000000000000000000000000000 DUP2 MSTORE PUSH1 0x4 ADD PUSH2 0x532 SWAP1 PUSH2 0x157A JUMP JUMPDEST PUSH1 0x40 MLOAD DUP1 SWAP2 SUB SWAP1 REVERT JUMPDEST PUSH1 0x0 PUSH2 0x547 CALLER DUP5 PUSH2 0x33B JUMP JUMPDEST SWAP1 POP PUSH1 0x0 DUP3 PUSH1 0x0 ADD SLOAD SWAP1 POP PUSH1 0x0 DUP2 SWAP1 POP PUSH3 0x93A80 DUP5 PUSH1 0x1 ADD SLOAD TIMESTAMP PUSH2 0x56B SWAP2 SWAP1 PUSH2 0x13DB JUMP JUMPDEST LT ISZERO PUSH2 0x5B7 JUMPI PUSH1 0x0 PUSH1 0x64 PUSH1 0xA DUP5 PUSH2 0x582 SWAP2 SWAP1 PUSH2 0x140F JUMP JUMPDEST PUSH2 0x58C SWAP2 SWAP1 PUSH2 0x1480 JUMP JUMPDEST SWAP1 POP DUP1 DUP4 PUSH2 0x59A SWAP2 SWAP1 PUSH2 0x13DB JUMP JUMPDEST SWAP2 POP DUP1 PUSH1 0x4 PUSH1 0x0 DUP3 DUP3 SLOAD PUSH2 0x5AE SWAP2 SWAP1 PUSH2 0x13DB JUMP JUMPDEST SWAP3 POP POP DUP2 SWAP1 SSTORE POP POP JUMPDEST PUSH1 0x0 DUP5 PUSH1 0x0 ADD DUP2 SWAP1 SSTORE POP DUP2 PUSH1 0x3 PUSH1 0x0 CALLER PUSH20 0xFFFFFFFFFFFFFFFFFFFFFFFFFFFFFFFFFFFFFFFF AND PUSH20 0xFFFFFFFFFFFFFFFFFFFFFFFFFFFFFFFFFFFFFFFF AND DUP2 MSTORE PUSH1 0x20 ADD SWAP1 DUP2 MSTORE PUSH1 0x20 ADD PUSH1 0x0 KECCAK256 PUSH1 0x0 DUP3 DUP3 SLOAD PUSH2 0x610 SWAP2 SWAP1 PUSH2 0x13DB JUMP JUMPDEST SWAP3 POP POP DUP2 SWAP1 SSTORE POP DUP2 PUSH1 0x4 PUSH1 0x0 DUP3 DUP3 SLOAD PUSH2 0x629 SWAP2 SWAP1 PUSH2 0x13DB JUMP JUMPDEST SWAP3 POP POP DUP2 SWAP1 SSTORE POP PUSH2 0x67D CALLER DUP3 PUSH1 0x1 PUSH1 0x0 SWAP1 SLOAD SWAP1 PUSH2 0x100 EXP SWAP1 DIV PUSH20 0xFFFFFFFFFFFFFFFFFFFFFFFFFFFFFFFFFFFFFFFF AND PUSH20 0xFFFFFFFFFFFFFFFFFFFFFFFFFFFFFFFFFFFFFFFF AND PUSH2 0xE57 SWAP1 SWAP3 SWAP2 SWAP1 PUSH4 0xFFFFFFFF AND JUMP JUMPDEST PUSH1 0x0 DUP4 GT ISZERO PUSH2 0x722 JUMPI PUSH2 0x6D3 CALLER DUP5 PUSH1 0x1 PUSH1 0x0 SWAP1 SLOAD SWAP1 PUSH2 0x100 EXP SWAP1 DIV PUSH20 0xFFFFFFFFFFFFFFFFFFFFFFFFFFFFFFFFFFFFFFFF AND PUSH20 0xFFFFFFFFFFFFFFFFFFFFFFFFFFFFFFFFFFFFFFFF AND PUSH2 0xE57 SWAP1 SWAP3 SWAP2 SWAP1 PUSH4 0xFFFFFFFF AND JUMP JUMPDEST CALLER PUSH20 0xFFFFFFFFFFFFFFFFFFFFFFFFFFFFFFFFFFFFFFFF AND PUSH32 0x106F923F993C2149D49B4255FF723ACAFA1F2D94393F561D3EDA32AE348F7241 DUP5 PUSH1 0x40 MLOAD PUSH2 0x719 SWAP2 SWAP1 PUSH2 0x121F JUMP JUMPDEST PUSH1 0x40 MLOAD DUP1 SWAP2 SUB SWAP1 LOG2 JUMPDEST CALLER PUSH20 0xFFFFFFFFFFFFFFFFFFFFFFFFFFFFFFFFFFFFFFFF AND PUSH32 0x7FC4727E062E336010F2C282598EF5F14FACB3DE68CF8195C2F23E1454B2B74E DUP4 DUP8 PUSH1 0x40 MLOAD PUSH2 0x76A SWAP3 SWAP2 SWAP1 PUSH2 0x159A JUMP JUMPDEST PUSH1 0x40 MLOAD DUP1 SWAP2 SUB SWAP1 LOG2 POP POP POP POP POP JUMP JUMPDEST PUSH1 0x0 DUP1 JUMPDEST PUSH1 0x2 PUSH1 0x0 CALLER PUSH20 0xFFFFFFFFFFFFFFFFFFFFFFFFFFFFFFFFFFFFFFFF AND PUSH20 0xFFFFFFFFFFFFFFFFFFFFFFFFFFFFFFFFFFFFFFFF AND DUP2 MSTORE PUSH1 0x20 ADD SWAP1 DUP2 MSTORE PUSH1 0x20 ADD PUSH1 0x0 KECCAK256 DUP1 SLOAD SWAP1 POP DUP2 LT ISZERO PUSH2 0x89C JUMPI PUSH1 0x0 PUSH1 0x2 PUSH1 0x0 CALLER PUSH20 0xFFFFFFFFFFFFFFFFFFFFFFFFFFFFFFFFFFFFFFFF AND PUSH20 0xFFFFFFFFFFFFFFFFFFFFFFFFFFFFFFFFFFFFFFFF AND DUP2 MSTORE PUSH1 0x20 ADD SWAP1 DUP2 MSTORE PUSH1 0x20 ADD PUSH1 0x0 KECCAK256 DUP3 DUP2 SLOAD DUP2 LT PUSH2 0x81A JUMPI PUSH2 0x819 PUSH2 0x137D JUMP JUMPDEST JUMPDEST SWAP1 PUSH1 0x0 MSTORE PUSH1 0x20 PUSH1 0x0 KECCAK256 SWAP1 PUSH1 0x4 MUL ADD SWAP1 POP PUSH1 0x0 DUP2 PUSH1 0x0 ADD SLOAD SUB PUSH2 0x83C JUMPI POP PUSH2 0x889 JUMP JUMPDEST PUSH1 0x0 PUSH2 0x848 CALLER DUP5 PUSH2 0x33B JUMP JUMPDEST SWAP1 POP PUSH1 0x0 DUP2 GT ISZERO PUSH2 0x886 JUMPI DUP1 DUP3 PUSH1 0x2 ADD PUSH1 0x0 DUP3 DUP3 SLOAD PUSH2 0x867 SWAP2 SWAP1 PUSH2 0x15C3 JUMP JUMPDEST SWAP3 POP POP DUP2 SWAP1 SSTORE POP TIMESTAMP DUP3 PUSH1 0x3 ADD DUP2 SWAP1 SSTORE POP DUP1 DUP5 PUSH2 0x883 SWAP2 SWAP1 PUSH2 0x15C3 JUMP JUMPDEST SWAP4 POP JUMPDEST POP POP JUMPDEST DUP1 DUP1 PUSH2 0x894 SWAP1 PUSH2 0x15F7 JUMP JUMPDEST SWAP2 POP POP PUSH2 0x77D JUMP JUMPDEST POP PUSH1 0x0 DUP2 GT PUSH2 0x8E0 JUMPI PUSH1 0x40 MLOAD PUSH32 0x8C379A000000000000000000000000000000000000000000000000000000000 DUP2 MSTORE PUSH1 0x4 ADD PUSH2 0x8D7 SWAP1 PUSH2 0x168B JUMP JUMPDEST PUSH1 0x40 MLOAD DUP1 SWAP2 SUB SWAP1 REVERT JUMPDEST PUSH2 0x92D CALLER DUP3 PUSH1 0x1 PUSH1 0x0 SWAP1 SLOAD SWAP1 PUSH2 0x100 EXP SWAP1 DIV PUSH20 0xFFFFFFFFFFFFFFFFFFFFFFFFFFFFFFFFFFFFFFFF AND PUSH20 0xFFFFFFFFFFFFFFFFFFFFFFFFFFFFFFFFFFFFFFFF AND PUSH2 0xE57 SWAP1 SWAP3 SWAP2 SWAP1 PUSH4 0xFFFFFFFF AND JUMP JUMPDEST CALLER PUSH20 0xFFFFFFFFFFFFFFFFFFFFFFFFFFFFFFFFFFFFFFFF AND PUSH32 0x106F923F993C2149D49B4255FF723ACAFA1F2D94393F561D3EDA32AE348F7241 DUP3 PUSH1 0x40 MLOAD PUSH2 0x973 SWAP2 SWAP1 PUSH2 0x121F JUMP JUMPDEST PUSH1 0x40 MLOAD DUP1 SWAP2 SUB SWAP1 LOG2 POP JUMP JUMPDEST PUSH1 0x2 PUSH1 0x20 MSTORE DUP2 PUSH1 0x0 MSTORE PUSH1 0x40 PUSH1 0x0 KECCAK256 DUP2 DUP2 SLOAD DUP2 LT PUSH2 0x99A JUMPI PUSH1 0x0 DUP1 REVERT JUMPDEST SWAP1 PUSH1 0x0 MSTORE PUSH1 0x20 PUSH1 0x0 KECCAK256 SWAP1 PUSH1 0x4 MUL ADD PUSH1 0x0 SWAP2 POP SWAP2 POP POP DUP1 PUSH1 0x0 ADD SLOAD SWAP1 DUP1 PUSH1 0x1 ADD SLOAD SWAP1 DUP1 PUSH1 0x2 ADD SLOAD SWAP1 DUP1 PUSH1 0x3 ADD SLOAD SWAP1 POP DUP5 JUMP JUMPDEST PUSH2 0x9D3 PUSH2 0xEAA JUMP JUMPDEST PUSH2 0x9DD PUSH1 0x0 PUSH2 0xF31 JUMP JUMPDEST JUMP JUMPDEST PUSH1 0x1 PUSH1 0x0 SWAP1 SLOAD SWAP1 PUSH2 0x100 EXP SWAP1 DIV PUSH20 0xFFFFFFFFFFFFFFFFFFFFFFFFFFFFFFFFFFFFFFFF AND DUP2 JUMP JUMPDEST PUSH1 0x5 SLOAD DUP2 JUMP JUMPDEST PUSH1 0x0 DUP1 PUSH1 0x0 SWAP1 SLOAD SWAP1 PUSH2 0x100 EXP SWAP1 DIV PUSH20 0xFFFFFFFFFFFFFFFFFFFFFFFFFFFFFFFFFFFFFFFF AND SWAP1 POP SWAP1 JUMP JUMPDEST PUSH1 0x3 PUSH1 0x20 MSTORE DUP1 PUSH1 0x0 MSTORE PUSH1 0x40 PUSH1 0x0 KECCAK256 PUSH1 0x0 SWAP2 POP SWAP1 POP SLOAD DUP2 JUMP JUMPDEST PUSH2 0xA54 PUSH2 0xEAA JUMP JUMPDEST DUP1 PUSH1 0x5 DUP2 SWAP1 SSTORE POP PUSH32 0x41D466EBD06FB97E7786086AC8B69B7EB7DA798592036251291D34E9791CDE01 DUP2 PUSH1 0x40 MLOAD PUSH2 0xA8A SWAP2 SWAP1 PUSH2 0x121F JUMP JUMPDEST PUSH1 0x40 MLOAD DUP1 SWAP2 SUB SWAP1 LOG1 POP JUMP JUMPDEST PUSH1 0x0 DUP2 GT PUSH2 0xAD8 JUMPI PUSH1 0x40 MLOAD PUSH32 0x8C379A000000000000000000000000000000000000000000000000000000000 DUP2 MSTORE PUSH1 0x4 ADD PUSH2 0xACF SWAP1 PUSH2 0x16F7 JUMP JUMPDEST PUSH1 0x40 MLOAD DUP1 SWAP2 SUB SWAP1 REVERT JUMPDEST PUSH2 0xB27 CALLER ADDRESS DUP4 PUSH1 0x1 PUSH1 0x0 SWAP1 SLOAD SWAP1 PUSH2 0x100 EXP SWAP1 DIV PUSH20 0xFFFFFFFFFFFFFFFFFFFFFFFFFFFFFFFFFFFFFFFF AND PUSH20 0xFFFFFFFFFFFFFFFFFFFFFFFFFFFFFFFFFFFFFFFF AND PUSH2 0xFF5 SWAP1 SWAP4 SWAP3 SWAP2 SWAP1 PUSH4 0xFFFFFFFF AND JUMP JUMPDEST PUSH1 0x2 PUSH1 0x0 CALLER PUSH20 0xFFFFFFFFFFFFFFFFFFFFFFFFFFFFFFFFFFFFFFFF AND PUSH20 0xFFFFFFFFFFFFFFFFFFFFFFFFFFFFFFFFFFFFFFFF AND DUP2 MSTORE PUSH1 0x20 ADD SWAP1 DUP2 MSTORE PUSH1 0x20 ADD PUSH1 0x0 KECCAK256 PUSH1 0x40 MLOAD DUP1 PUSH1 0x80 ADD PUSH1 0x40 MSTORE DUP1 DUP4 DUP2 MSTORE PUSH1 0x20 ADD TIMESTAMP DUP2 MSTORE PUSH1 0x20 ADD PUSH1 0x0 DUP2 MSTORE PUSH1 0x20 ADD TIMESTAMP DUP2 MSTORE POP SWAP1 DUP1 PUSH1 0x1 DUP2 SLOAD ADD DUP1 DUP3 SSTORE DUP1 SWAP2 POP POP PUSH1 0x1 SWAP1 SUB SWAP1 PUSH1 0x0 MSTORE PUSH1 0x20 PUSH1 0x0 KECCAK256 SWAP1 PUSH1 0x4 MUL ADD PUSH1 0x0 SWAP1 SWAP2 SWAP1 SWAP2 SWAP1 SWAP2 POP PUSH1 0x0 DUP3 ADD MLOAD DUP2 PUSH1 0x0 ADD SSTORE PUSH1 0x20 DUP3 ADD MLOAD DUP2 PUSH1 0x1 ADD SSTORE PUSH1 0x40 DUP3 ADD MLOAD DUP2 PUSH1 0x2 ADD SSTORE PUSH1 0x60 DUP3 ADD MLOAD DUP2 PUSH1 0x3 ADD SSTORE POP POP DUP1 PUSH1 0x3 PUSH1 0x0 CALLER PUSH20 0xFFFFFFFFFFFFFFFFFFFFFFFFFFFFFFFFFFFFFFFF AND PUSH20 0xFFFFFFFFFFFFFFFFFFFFFFFFFFFFFFFFFFFFFFFF AND DUP2 MSTORE PUSH1 0x20 ADD SWAP1 DUP2 MSTORE PUSH1 0x20 ADD PUSH1 0x0 KECCAK256 PUSH1 0x0 DUP3 DUP3 SLOAD PUSH2 0xC2A SWAP2 SWAP1 PUSH2 0x15C3 JUMP JUMPDEST SWAP3 POP POP DUP2 SWAP1 SSTORE POP DUP1 PUSH1 0x4 PUSH1 0x0 DUP3 DUP3 SLOAD PUSH2 0xC43 SWAP2 SWAP1 PUSH2 0x15C3 JUMP JUMPDEST SWAP3 POP POP DUP2 SWAP1 SSTORE POP CALLER PUSH20 0xFFFFFFFFFFFFFFFFFFFFFFFFFFFFFFFFFFFFFFFF AND PUSH32 0x1449C6DD7851ABC30ABF37F57715F492010519147CC2652FBC38202C18A6EE90 DUP3 PUSH1 0x1 PUSH1 0x2 PUSH1 0x0 CALLER PUSH20 0xFFFFFFFFFFFFFFFFFFFFFFFFFFFFFFFFFFFFFFFF AND PUSH20 0xFFFFFFFFFFFFFFFFFFFFFFFFFFFFFFFFFFFFFFFF AND DUP2 MSTORE PUSH1 0x20 ADD SWAP1 DUP2 MSTORE PUSH1 0x20 ADD PUSH1 0x0 KECCAK256 DUP1 SLOAD SWAP1 POP PUSH2 0xCD2 SWAP2 SWAP1 PUSH2 0x13DB JUMP JUMPDEST PUSH1 0x40 MLOAD PUSH2 0xCE0 SWAP3 SWAP2 SWAP1 PUSH2 0x159A JUMP JUMPDEST PUSH1 0x40 MLOAD DUP1 SWAP2 SUB SWAP1 LOG2 POP JUMP JUMPDEST PUSH1 0x0 DUP1 PUSH1 0x0 SWAP1 POP PUSH1 0x0 JUMPDEST PUSH1 0x2 PUSH1 0x0 DUP6 PUSH20 0xFFFFFFFFFFFFFFFFFFFFFFFFFFFFFFFFFFFFFFFF AND PUSH20 0xFFFFFFFFFFFFFFFFFFFFFFFFFFFFFFFFFFFFFFFF AND DUP2 MSTORE PUSH1 0x20 ADD SWAP1 DUP2 MSTORE PUSH1 0x20 ADD PUSH1 0x0 KECCAK256 DUP1 SLOAD SWAP1 POP DUP2 LT ISZERO PUSH2 0xD69 JUMPI PUSH2 0xD49 DUP5 DUP3 PUSH2 0x33B JUMP JUMPDEST DUP3 PUSH2 0xD54 SWAP2 SWAP1 PUSH2 0x15C3 JUMP JUMPDEST SWAP2 POP DUP1 DUP1 PUSH2 0xD61 SWAP1 PUSH2 0x15F7 JUMP JUMPDEST SWAP2 POP POP PUSH2 0xCF5 JUMP JUMPDEST POP DUP1 SWAP2 POP POP SWAP2 SWAP1 POP JUMP JUMPDEST PUSH1 0xA DUP2 JUMP JUMPDEST PUSH1 0x4 SLOAD DUP2 JUMP JUMPDEST PUSH1 0x0 PUSH1 0x2 PUSH1 0x0 DUP4 PUSH20 0xFFFFFFFFFFFFFFFFFFFFFFFFFFFFFFFFFFFFFFFF AND PUSH20 0xFFFFFFFFFFFFFFFFFFFFFFFFFFFFFFFFFFFFFFFF AND DUP2 MSTORE PUSH1 0x20 ADD SWAP1 DUP2 MSTORE PUSH1 0x20 ADD PUSH1 0x0 KECCAK256 DUP1 SLOAD SWAP1 POP SWAP1 POP SWAP2 SWAP1 POP JUMP JUMPDEST PUSH3 0x93A80 DUP2 JUMP JUMPDEST PUSH2 0xDD9 PUSH2 0xEAA JUMP JUMPDEST PUSH1 0x0 PUSH20 0xFFFFFFFFFFFFFFFFFFFFFFFFFFFFFFFFFFFFFFFF AND DUP2 PUSH20 0xFFFFFFFFFFFFFFFFFFFFFFFFFFFFFFFFFFFFFFFF AND SUB PUSH2 0xE4B JUMPI PUSH1 0x0 PUSH1 0x40 MLOAD PUSH32 0x1E4FBDF700000000000000000000000000000000000000000000000000000000 DUP2 MSTORE PUSH1 0x4 ADD PUSH2 0xE42 SWAP2 SWAP1 PUSH2 0x1335 JUMP JUMPDEST PUSH1 0x40 MLOAD DUP1 SWAP2 SUB SWAP1 REVERT JUMPDEST PUSH2 0xE54 DUP2 PUSH2 0xF31 JUMP JUMPDEST POP JUMP JUMPDEST PUSH2 0xE64 DUP4 DUP4 DUP4 PUSH1 0x1 PUSH2 0x104A JUMP JUMPDEST PUSH2 0xEA5 JUMPI DUP3 PUSH1 0x40 MLOAD PUSH32 0x5274AFE700000000000000000000000000000000000000000000000000000000 DUP2 MSTORE PUSH1 0x4 ADD PUSH2 0xE9C SWAP2 SWAP1 PUSH2 0x1335 JUMP JUMPDEST PUSH1 0x40 MLOAD DUP1 SWAP2 SUB SWAP1 REVERT JUMPDEST POP POP POP JUMP JUMPDEST PUSH2 0xEB2 PUSH2 0x10B4 JUMP JUMPDEST PUSH20 0xFFFFFFFFFFFFFFFFFFFFFFFFFFFFFFFFFFFFFFFF AND PUSH2 0xED0 PUSH2 0xA0B JUMP JUMPDEST PUSH20 0xFFFFFFFFFFFFFFFFFFFFFFFFFFFFFFFFFFFFFFFF AND EQ PUSH2 0xF2F JUMPI PUSH2 0xEF3 PUSH2 0x10B4 JUMP JUMPDEST PUSH1 0x40 MLOAD PUSH32 0x118CDAA700000000000000000000000000000000000000000000000000000000 DUP2 MSTORE PUSH1 0x4 ADD PUSH2 0xF26 SWAP2 SWAP1 PUSH2 0x1335 JUMP JUMPDEST PUSH1 0x40 MLOAD DUP1 SWAP2 SUB SWAP1 REVERT JUMPDEST JUMP JUMPDEST PUSH1 0x0 DUP1 PUSH1 0x0 SWAP1 SLOAD SWAP1 PUSH2 0x100 EXP SWAP1 DIV PUSH20 0xFFFFFFFFFFFFFFFFFFFFFFFFFFFFFFFFFFFFFFFF AND SWAP1 POP DUP2 PUSH1 0x0 DUP1 PUSH2 0x100 EXP DUP2 SLOAD DUP2 PUSH20 0xFFFFFFFFFFFFFFFFFFFFFFFFFFFFFFFFFFFFFFFF MUL NOT AND SWAP1 DUP4 PUSH20 0xFFFFFFFFFFFFFFFFFFFFFFFFFFFFFFFFFFFFFFFF AND MUL OR SWAP1 SSTORE POP DUP2 PUSH20 0xFFFFFFFFFFFFFFFFFFFFFFFFFFFFFFFFFFFFFFFF AND DUP2 PUSH20 0xFFFFFFFFFFFFFFFFFFFFFFFFFFFFFFFFFFFFFFFF AND PUSH32 0x8BE0079C531659141344CD1FD0A4F28419497F9722A3DAAFE3B4186F6B6457E0 PUSH1 0x40 MLOAD PUSH1 0x40 MLOAD DUP1 SWAP2 SUB SWAP1 LOG3 POP POP JUMP JUMPDEST PUSH2 0x1003 DUP5 DUP5 DUP5 DUP5 PUSH1 0x1 PUSH2 0x10BC JUMP JUMPDEST PUSH2 0x1044 JUMPI DUP4 PUSH1 0x40 MLOAD PUSH32 0x5274AFE700000000000000000000000000000000000000000000000000000000 DUP2 MSTORE PUSH1 0x4 ADD PUSH2 0x103B SWAP2 SWAP1 PUSH2 0x1335 JUMP JUMPDEST PUSH1 0x40 MLOAD DUP1 SWAP2 SUB SWAP1 REVERT JUMPDEST POP POP POP POP JUMP JUMPDEST PUSH1 0x0 DUP1 PUSH4 0xA9059CBB PUSH1 0xE0 SHL SWAP1 POP PUSH1 0x40 MLOAD DUP2 PUSH1 0x0 MSTORE PUSH1 0x0 NOT PUSH1 0x60 SHR DUP7 AND PUSH1 0x4 MSTORE DUP5 PUSH1 0x24 MSTORE PUSH1 0x20 PUSH1 0x0 PUSH1 0x44 PUSH1 0x0 DUP1 DUP12 GAS CALL SWAP3 POP PUSH1 0x1 PUSH1 0x0 MLOAD EQ DUP4 AND PUSH2 0x10A6 JUMPI DUP4 DUP4 ISZERO AND ISZERO PUSH2 0x1099 JUMPI RETURNDATASIZE PUSH1 0x0 DUP3 RETURNDATACOPY RETURNDATASIZE DUP2 REVERT JUMPDEST PUSH1 0x0 DUP8 EXTCODESIZE GT RETURNDATASIZE ISZERO AND DUP4 AND SWAP3 POP JUMPDEST DUP1 PUSH1 0x40 MSTORE POP POP SWAP5 SWAP4 POP POP POP POP JUMP JUMPDEST PUSH1 0x0 CALLER SWAP1 POP SWAP1 JUMP JUMPDEST PUSH1 0x0 DUP1 PUSH4 0x23B872DD PUSH1 0xE0 SHL SWAP1 POP PUSH1 0x40 MLOAD DUP2 PUSH1 0x0 MSTORE PUSH1 0x0 NOT PUSH1 0x60 SHR DUP8 AND PUSH1 0x4 MSTORE PUSH1 0x0 NOT PUSH1 0x60 SHR DUP7 AND PUSH1 0x24 MSTORE DUP5 PUSH1 0x44 MSTORE PUSH1 0x20 PUSH1 0x0 PUSH1 0x64 PUSH1 0x0 DUP1 DUP13 GAS CALL SWAP3 POP PUSH1 0x1 PUSH1 0x0 MLOAD EQ DUP4 AND PUSH2 0x1123 JUMPI DUP4 DUP4 ISZERO AND ISZERO PUSH2 0x1116 JUMPI RETURNDATASIZE PUSH1 0x0 DUP3 RETURNDATACOPY RETURNDATASIZE DUP2 REVERT JUMPDEST PUSH1 0x0 DUP9 EXTCODESIZE GT RETURNDATASIZE ISZERO AND DUP4 AND SWAP3 POP JUMPDEST DUP1 PUSH1 0x40 MSTORE PUSH1 0x0 PUSH1 0x60 MSTORE POP POP SWAP6 SWAP5 POP POP POP POP POP JUMP JUMPDEST PUSH1 0x0 DUP1 REVERT JUMPDEST PUSH1 0x0 PUSH20 0xFFFFFFFFFFFFFFFFFFFFFFFFFFFFFFFFFFFFFFFF DUP3 AND SWAP1 POP SWAP2 SWAP1 POP JUMP JUMPDEST PUSH1 0x0 PUSH2 0x1167 DUP3 PUSH2 0x113C JUMP JUMPDEST SWAP1 POP SWAP2 SWAP1 POP JUMP JUMPDEST PUSH2 0x1177 DUP2 PUSH2 0x115C JUMP JUMPDEST DUP2 EQ PUSH2 0x1182 JUMPI PUSH1 0x0 DUP1 REVERT JUMPDEST POP JUMP JUMPDEST PUSH1 0x0 DUP2 CALLDATALOAD SWAP1 POP PUSH2 0x1194 DUP2 PUSH2 0x116E JUMP JUMPDEST SWAP3 SWAP2 POP POP JUMP JUMPDEST PUSH1 0x0 DUP2 SWAP1 POP SWAP2 SWAP1 POP JUMP JUMPDEST PUSH2 0x11AD DUP2 PUSH2 0x119A JUMP JUMPDEST DUP2 EQ PUSH2 0x11B8 JUMPI PUSH1 0x0 DUP1 REVERT JUMPDEST POP JUMP JUMPDEST PUSH1 0x0 DUP2 CALLDATALOAD SWAP1 POP PUSH2 0x11CA DUP2 PUSH2 0x11A4 JUMP JUMPDEST SWAP3 SWAP2 POP POP JUMP JUMPDEST PUSH1 0x0 DUP1 PUSH1 0x40 DUP4 DUP6 SUB SLT ISZERO PUSH2 0x11E7 JUMPI PUSH2 0x11E6 PUSH2 0x1137 JUMP JUMPDEST JUMPDEST PUSH1 0x0 PUSH2 0x11F5 DUP6 DUP3 DUP7 ADD PUSH2 0x1185 JUMP JUMPDEST SWAP3 POP POP PUSH1 0x20 PUSH2 0x1206 DUP6 DUP3 DUP7 ADD PUSH2 0x11BB JUMP JUMPDEST SWAP2 POP POP SWAP3 POP SWAP3 SWAP1 POP JUMP JUMPDEST PUSH2 0x1219 DUP2 PUSH2 0x119A JUMP JUMPDEST DUP3 MSTORE POP POP JUMP JUMPDEST PUSH1 0x0 PUSH1 0x20 DUP3 ADD SWAP1 POP PUSH2 0x1234 PUSH1 0x0 DUP4 ADD DUP5 PUSH2 0x1210 JUMP JUMPDEST SWAP3 SWAP2 POP POP JUMP JUMPDEST PUSH1 0x0 PUSH1 0x20 DUP3 DUP5 SUB SLT ISZERO PUSH2 0x1250 JUMPI PUSH2 0x124F PUSH2 0x1137 JUMP JUMPDEST JUMPDEST PUSH1 0x0 PUSH2 0x125E DUP5 DUP3 DUP6 ADD PUSH2 0x11BB JUMP JUMPDEST SWAP2 POP POP SWAP3 SWAP2 POP POP JUMP JUMPDEST PUSH1 0x0 PUSH1 0x80 DUP3 ADD SWAP1 POP PUSH2 0x127C PUSH1 0x0 DUP4 ADD DUP8 PUSH2 0x1210 JUMP JUMPDEST PUSH2 0x1289 PUSH1 0x20 DUP4 ADD DUP7 PUSH2 0x1210 JUMP JUMPDEST PUSH2 0x1296 PUSH1 0x40 DUP4 ADD DUP6 PUSH2 0x1210 JUMP JUMPDEST PUSH2 0x12A3 PUSH1 0x60 DUP4 ADD DUP5 PUSH2 0x1210 JUMP JUMPDEST SWAP6 SWAP5 POP POP POP POP POP JUMP JUMPDEST PUSH1 0x0 DUP2 SWAP1 POP SWAP2 SWAP1 POP JUMP JUMPDEST PUSH1 0x0 PUSH2 0x12D1 PUSH2 0x12CC PUSH2 0x12C7 DUP5 PUSH2 0x113C JUMP JUMPDEST PUSH2 0x12AC JUMP JUMPDEST PUSH2 0x113C JUMP JUMPDEST SWAP1 POP SWAP2 SWAP1 POP JUMP JUMPDEST PUSH1 0x0 PUSH2 0x12E3 DUP3 PUSH2 0x12B6 JUMP JUMPDEST SWAP1 POP SWAP2 SWAP1 POP JUMP JUMPDEST PUSH1 0x0 PUSH2 0x12F5 DUP3 PUSH2 0x12D8 JUMP JUMPDEST SWAP1 POP SWAP2 SWAP1 POP JUMP JUMPDEST PUSH2 0x1305 DUP2 PUSH2 0x12EA JUMP JUMPDEST DUP3 MSTORE POP POP JUMP JUMPDEST PUSH1 0x0 PUSH1 0x20 DUP3 ADD SWAP1 POP PUSH2 0x1320 PUSH1 0x0 DUP4 ADD DUP5 PUSH2 0x12FC JUMP JUMPDEST SWAP3 SWAP2 POP POP JUMP JUMPDEST PUSH2 0x132F DUP2 PUSH2 0x115C JUMP JUMPDEST DUP3 MSTORE POP POP JUMP JUMPDEST PUSH1 0x0 PUSH1 0x20 DUP3 ADD SWAP1 POP PUSH2 0x134A PUSH1 0x0 DUP4 ADD DUP5 PUSH2 0x1326 JUMP JUMPDEST SWAP3 SWAP2 POP POP JUMP JUMPDEST PUSH1 0x0 PUSH1 0x20 DUP3 DUP5 SUB SLT ISZERO PUSH2 0x1366 JUMPI PUSH2 0x1365 PUSH2 0x1137 JUMP JUMPDEST JUMPDEST PUSH1 0x0 PUSH2 0x1374 DUP5 DUP3 DUP6 ADD PUSH2 0x1185 JUMP JUMPDEST SWAP2 POP POP SWAP3 SWAP2 POP POP JUMP JUMPDEST PUSH32 0x4E487B7100000000000000000000000000000000000000000000000000000000 PUSH1 0x0 MSTORE PUSH1 0x32 PUSH1 0x4 MSTORE PUSH1 0x24 PUSH1 0x0 REVERT JUMPDEST PUSH32 0x4E487B7100000000000000000000000000000000000000000000000000000000 PUSH1 0x0 MSTORE PUSH1 0x11 PUSH1 0x4 MSTORE PUSH1 0x24 PUSH1 0x0 REVERT JUMPDEST PUSH1 0x0 PUSH2 0x13E6 DUP3 PUSH2 0x119A JUMP JUMPDEST SWAP2 POP PUSH2 0x13F1 DUP4 PUSH2 0x119A JUMP JUMPDEST SWAP3 POP DUP3 DUP3 SUB SWAP1 POP DUP2 DUP2 GT ISZERO PUSH2 0x1409 JUMPI PUSH2 0x1408 PUSH2 0x13AC JUMP JUMPDEST JUMPDEST SWAP3 SWAP2 POP POP JUMP JUMPDEST PUSH1 0x0 PUSH2 0x141A DUP3 PUSH2 0x119A JUMP JUMPDEST SWAP2 POP PUSH2 0x1425 DUP4 PUSH2 0x119A JUMP JUMPDEST SWAP3 POP DUP3 DUP3 MUL PUSH2 0x1433 DUP2 PUSH2 0x119A JUMP JUMPDEST SWAP2 POP DUP3 DUP3 DIV DUP5 EQ DUP4 ISZERO OR PUSH2 0x144A JUMPI PUSH2 0x1449 PUSH2 0x13AC JUMP JUMPDEST JUMPDEST POP SWAP3 SWAP2 POP POP JUMP JUMPDEST PUSH32 0x4E487B7100000000000000000000000000000000000000000000000000000000 PUSH1 0x0 MSTORE PUSH1 0x12 PUSH1 0x4 MSTORE PUSH1 0x24 PUSH1 0x0 REVERT JUMPDEST PUSH1 0x0 PUSH2 0x148B DUP3 PUSH2 0x119A JUMP JUMPDEST SWAP2 POP PUSH2 0x1496 DUP4 PUSH2 0x119A JUMP JUMPDEST SWAP3 POP DUP3 PUSH2 0x14A6 JUMPI PUSH2 0x14A5 PUSH2 0x1451 JUMP JUMPDEST JUMPDEST DUP3 DUP3 DIV SWAP1 POP SWAP3 SWAP2 POP POP JUMP JUMPDEST PUSH1 0x0 DUP3 DUP3 MSTORE PUSH1 0x20 DUP3 ADD SWAP1 POP SWAP3 SWAP2 POP POP JUMP JUMPDEST PUSH32 0x496E76616C6964207374616B6520494400000000000000000000000000000000 PUSH1 0x0 DUP3 ADD MSTORE POP JUMP JUMPDEST PUSH1 0x0 PUSH2 0x14F8 PUSH1 0x10 DUP4 PUSH2 0x14B1 JUMP JUMPDEST SWAP2 POP PUSH2 0x1503 DUP3 PUSH2 0x14C2 JUMP JUMPDEST PUSH1 0x20 DUP3 ADD SWAP1 POP SWAP2 SWAP1 POP JUMP JUMPDEST PUSH1 0x0 PUSH1 0x20 DUP3 ADD SWAP1 POP DUP2 DUP2 SUB PUSH1 0x0 DUP4 ADD MSTORE PUSH2 0x1527 DUP2 PUSH2 0x14EB JUMP JUMPDEST SWAP1 POP SWAP2 SWAP1 POP JUMP JUMPDEST PUSH32 0x416C726561647920756E7374616B656400000000000000000000000000000000 PUSH1 0x0 DUP3 ADD MSTORE POP JUMP JUMPDEST PUSH1 0x0 PUSH2 0x1564 PUSH1 0x10 DUP4 PUSH2 0x14B1 JUMP JUMPDEST SWAP2 POP PUSH2 0x156F DUP3 PUSH2 0x152E JUMP JUMPDEST PUSH1 0x20 DUP3 ADD SWAP1 POP SWAP2 SWAP1 POP JUMP JUMPDEST PUSH1 0x0 PUSH1 0x20 DUP3 ADD SWAP1 POP DUP2 DUP2 SUB PUSH1 0x0 DUP4 ADD MSTORE PUSH2 0x1593 DUP2 PUSH2 0x1557 JUMP JUMPDEST SWAP1 POP SWAP2 SWAP1 POP JUMP JUMPDEST PUSH1 0x0 PUSH1 0x40 DUP3 ADD SWAP1 POP PUSH2 0x15AF PUSH1 0x0 DUP4 ADD DUP6 PUSH2 0x1210 JUMP JUMPDEST PUSH2 0x15BC PUSH1 0x20 DUP4 ADD DUP5 PUSH2 0x1210 JUMP JUMPDEST SWAP4 SWAP3 POP POP POP JUMP JUMPDEST PUSH1 0x0 PUSH2 0x15CE DUP3 PUSH2 0x119A JUMP JUMPDEST SWAP2 POP PUSH2 0x15D9 DUP4 PUSH2 0x119A JUMP JUMPDEST SWAP3 POP DUP3 DUP3 ADD SWAP1 POP DUP1 DUP3 GT ISZERO PUSH2 0x15F1 JUMPI PUSH2 0x15F0 PUSH2 0x13AC JUMP JUMPDEST JUMPDEST SWAP3 SWAP2 POP POP JUMP JUMPDEST PUSH1 0x0 PUSH2 0x1602 DUP3 PUSH2 0x119A JUMP JUMPDEST SWAP2 POP PUSH32 0xFFFFFFFFFFFFFFFFFFFFFFFFFFFFFFFFFFFFFFFFFFFFFFFFFFFFFFFFFFFFFFFF DUP3 SUB PUSH2 0x1634 JUMPI PUSH2 0x1633 PUSH2 0x13AC JUMP JUMPDEST JUMPDEST PUSH1 0x1 DUP3 ADD SWAP1 POP SWAP2 SWAP1 POP JUMP JUMPDEST PUSH32 0x4E6F207265776172647320746F20636C61696D00000000000000000000000000 PUSH1 0x0 DUP3 ADD MSTORE POP JUMP JUMPDEST PUSH1 0x0 PUSH2 0x1675 PUSH1 0x13 DUP4 PUSH2 0x14B1 JUMP JUMPDEST SWAP2 POP PUSH2 0x1680 DUP3 PUSH2 0x163F JUMP JUMPDEST PUSH1 0x20 DUP3 ADD SWAP1 POP SWAP2 SWAP1 POP JUMP JUMPDEST PUSH1 0x0 PUSH1 0x20 DUP3 ADD SWAP1 POP DUP2 DUP2 SUB PUSH1 0x0 DUP4 ADD MSTORE PUSH2 0x16A4 DUP2 PUSH2 0x1668 JUMP JUMPDEST SWAP1 POP SWAP2 SWAP1 POP JUMP JUMPDEST PUSH32 0x43616E6E6F74207374616B652030000000000000000000000000000000000000 PUSH1 0x0 DUP3 ADD MSTORE POP JUMP JUMPDEST PUSH1 0x0 PUSH2 0x16E1 PUSH1 0xE DUP4 PUSH2 0x14B1 JUMP JUMPDEST SWAP2 POP PUSH2 0x16EC DUP3 PUSH2 0x16AB JUMP JUMPDEST PUSH1 0x20 DUP3 ADD SWAP1 POP SWAP2 SWAP1 POP JUMP JUMPDEST PUSH1 0x0 PUSH1 0x20 DUP3 ADD SWAP1 POP DUP2 DUP2 SUB PUSH1 0x0 DUP4 ADD MSTORE PUSH2 0x1710 DUP2 PUSH2 0x16D4 JUMP JUMPDEST SWAP1 POP SWAP2 SWAP1 POP JUMP INVALID LOG2 PUSH5 0x6970667358 0x22 SLT KECCAK256 0xB6 CALLDATASIZE STOP PUSH12 0x85B9F3696EE0871048C013FE BASEFEE 0xDB PUSH15 0xCDE4E1F01B6AAB4593534F1D946473 PUSH16 0x6C634300081400330000000000000000 "},"methodIdentifiers":{"EARLY_WITHDRAWAL_PENALTY()":"b918ee25","MIN_STAKE_DURATION()":"e0c570ba","calculatePendingReward(address,uint256)":"06947c54","claimRewards()":"372500ab","getStakeCount(address)":"cf57ee69","getTotalPendingRewards(address)":"a8c478ba","nexusToken()":"78f337e7","owner()":"8da5cb5b","renounceOwnership()":"715018a6","rewardRate()":"7b0a47ee","setRewardRate(uint256)":"9e447fc6","stake(uint256)":"a694fc3a","stakes(address,uint256)":"584b62a1","totalStaked(address)":"9bfd8d61","totalStakedSupply()":"bcdc3cfc","transferOwnership(address)":"f2fde38b","unstake(uint256)":"2e17de78"}}}}}