{
  "_format": "hh-sol-artifact-1",
  "contractName": "NexusToken",
  "sourceName": "contracts/NexusToken.sol",
  "abi": [
    {
      "inputs": [],
      "stateMutability": "nonpayable",
      "type": "constructor"
    },
    {
      "inputs": [],
      "name": "AccessControlBadConfirmation",
      "type": "error"
    },
    {
      "inputs": [
        {
          "internalType": "address",
          "name": "account",
          "type": "address"
        },
        {
          "internalType": "bytes32",
          "name": "neededRole",
          "type": "bytes32"
        }
      ],
      "name": "AccessControlUnauthorizedAccount",
      "type": "error"
    },
    {
      "inputs": [
        {
          "internalType": "address",
          "name": "spender",
          "type": "address"
        },
        {
          "internalType": "uint256",
          "name": "allowance",
          "type": "uint256"
        },
        {
          "internalType": "uint256",
          "name": "needed",
          "type": "uint256"
        }
      ],
      "name": "ERC20InsufficientAllowance",
      "type": "error"
    },
    {
      "inputs": [
        {
          "internalType": "address",
          "name": "sender",
          "type": "address"
        },
        {
          "internalType": "uint256",
          "name": "balance",
          "type": "uint256"
        },
        {
          "internalType": "uint256",
          "name": "needed",
          "type": "uint256"
        }
      ],
      "name": "ERC20InsufficientBalance",
      "type": "error"
    },
    {
      "inputs": [
        {
          "internalType": "address",
          "name": "approver",
          "type": "address"
        }
      ],
      "name": "ERC20InvalidApprover",
      "type": "error"
    },
    {
      "inputs": [
        {
          "internalType": "address",
          "name": "receiver",
          "type": "address"
        }
      ],
      "name": "ERC20InvalidReceiver",
      "type": "error"
    },
    {
      "inputs": [
        {
          "internalType": "address",
          "name": "sender",
          "type": "address"
        }
      ],
      "name": "ERC20InvalidSender",
      "type": "error"
    },
    {
      "inputs": [
        {
          "internalType": "address",
          "name": "spender",
          "type": "address"
        }
      ],
      "name": "ERC20InvalidSpender",
      "type": "error"
    },
    {
      "inputs": [
        {
          "internalType": "address",
          "name": "owner",
          "type": "address"
        }
      ],
      "name": "OwnableInvalidOwner",
      "type": "error"
    },
    {
      "inputs": [
        {
          "internalType": "address",
          "name": "account",
          "type": "address"
        }
      ],
      "name": "OwnableUnauthorizedAccount",
      "type": "error"
    },
    {
      "anonymous": false,
      "inputs": [
        {
          "indexed": true,
          "internalType": "address",
          "name": "owner",
          "type": "address"
        },
        {
          "indexed": true,
          "internalType": "address",
          "name": "spender",
          "type": "address"
        },
        {
          "indexed": false,
          "internalType": "uint256",
          "name": "value",
          "type": "uint256"
        }
      ],
      "name": "Approval",
      "type": "event"
    },
    {
      "anonymous": false,
      "inputs": [
        {
          "indexed": true,
          "internalType": "address",
          "name": "previousOwner",
          "type": "address"
        },
        {
          "indexed": true,
          "internalType": "address",
          "name": "newOwner",
          "type": "address"
        }
      ],
      "name": "OwnershipTransferred",
      "type": "event"
    },
    {
      "anonymous": false,
      "inputs": [
        {
          "indexed": true,
          "internalType": "bytes32",
          "name": "role",
          "type": "bytes32"
        },
        {
          "indexed": true,
          "internalType": "bytes32",
          "name": "previousAdminRole",
          "type": "bytes32"
        },
        {
          "indexed": true,
          "internalType": "bytes32",
          "name": "newAdminRole",
          "type": "bytes32"
        }
      ],
      "name": "RoleAdminChanged",
      "type": "event"
    },
    {
      "anonymous": false,
      "inputs": [
        {
          "indexed": true,
          "internalType": "bytes32",
          "name": "role",
          "type": "bytes32"
        },
        {
          "indexed": true,
          "internalType": "address",
          "name": "account",
          "type": "address"
        },
        {
          "indexed": true,
          "internalType": "address",
          "name": "sender",
          "type": "address"
        }
      ],
      "name": "RoleGranted",
      "type": "event"
    },
    {
      "anonymous": false,
      "inputs": [
        {
          "indexed": true,
          "internalType": "bytes32",
          "name": "role",
          "type": "bytes32"
        },
        {
          "indexed": true,
          "internalType": "address",
          "name": "account",
          "type": "address"
        },
        {
          "indexed": true,
          "internalType": "address",
          "name": "sender",
          "type": "address"
        }
      ],
      "name": "RoleRevoked",
      "type": "event"
    },
    {
      "anonymous": false,
      "inputs": [
        {
          "indexed": true,
          "internalType": "address",
          "name": "from",
          "type": "address"
        },
        {
          "indexed": true,
          "internalType": "address",
          "name": "to",
          "type": "address"
        },
        {
          "indexed": false,
          "internalType": "uint256",
          "name": "value",
          "type": "uint256"
        }
      ],
      "name": "Transfer",
      "type": "event"
    },
    {
      "anonymous": false,
      "inputs": [
        {
          "indexed": true,
          "internalType": "address",
          "name": "newTreasury",
          "type": "address"
        }
      ],
      "name": "TreasuryUpdated",
      "type": "event"
    },
    {
      "anonymous": false,
      "inputs": [
        {
          "indexed": true,
          "internalType": "address",
          "name": "beneficiary",
          "type": "address"
        },
        {
          "indexed": false,
          "internalType": "uint256",
          "name": "amount",
          "type": "uint256"
        }
      ],
      "name": "VestingCreated",
      "type": "event"
    },
    {
      "anonymous": false,
      "inputs": [
        {
          "indexed": true,
          "internalType": "address",
          "name": "beneficiary",
          "type": "address"
        },
        {
          "indexed": false,
          "internalType": "uint256",
          "name": "amount",
          "type": "uint256"
        }
      ],
      "name": "VestingReleased",
      "type": "event"
    },
    {
      "inputs": [],
      "name": "DEFAULT_ADMIN_ROLE",
      "outputs": [
        {
          "internalType": "bytes32",
          "name": "",
          "type": "bytes32"
        }
      ],
      "stateMutability": "view",
      "type": "function"
    },
    {
      "inputs": [],
      "name": "MAX_SUPPLY",
      "outputs": [
        {
          "internalType": "uint256",
          "name": "",
          "type": "uint256"
        }
      ],
      "stateMutability": "view",
      "type": "function"
    },
    {
      "inputs": [],
      "name": "MINTER_ROLE",
      "outputs": [
        {
          "internalType": "bytes32",
          "name": "",
          "type": "bytes32"
        }
      ],
      "stateMutability": "view",
      "type": "function"
    },
    {
      "inputs": [],
      "name": "airdropAllocation",
      "outputs": [
        {
          "internalType": "uint256",
          "name": "",
          "type": "uint256"
        }
      ],
      "stateMutability": "view",
      "type": "function"
    },
    {
      "inputs": [],
      "name": "airdropMinted",
      "outputs": [
        {
          "internalType": "bool",
          "name": "",
          "type": "bool"
        }
      ],
      "stateMutability": "view",
      "type": "function"
    },
    {
      "inputs": [
        {
          "internalType": "address",
          "name": "owner",
          "type": "address"
        },
        {
          "internalType": "address",
          "name": "spender",
          "type": "address"
        }
      ],
      "name": "allowance",
      "outputs": [
        {
          "internalType": "uint256",
          "name": "",
          "type": "uint256"
        }
      ],
      "stateMutability": "view",
      "type": "function"
    },
    {
      "inputs": [
        {
          "internalType": "address",
          "name": "spender",
          "type": "address"
        },
        {
          "internalType": "uint256",
          "name": "value",
          "type": "uint256"
        }
      ],
      "name": "approve",
      "outputs": [
        {
          "internalType": "bool",
          "name": "",
          "type": "bool"
        }
      ],
      "stateMutability": "nonpayable",
      "type": "function"
    },
    {
      "inputs": [
        {
          "internalType": "address",
          "name": "account",
          "type": "address"
        }
      ],
      "name": "balanceOf",
      "outputs": [
        {
          "internalType": "uint256",
          "name": "",
          "type": "uint256"
        }
      ],
      "stateMutability": "view",
      "type": "function"
    },
    {
      "inputs": [
        {
          "internalType": "address[]",
          "name": "beneficiaries",
          "type": "address[]"
        },
        {
          "internalType": "uint256[]",
          "name": "amounts",
          "type": "uint256[]"
        }
      ],
      "name": "batchCreateInvestorVesting",
      "outputs": [],
      "stateMutability": "nonpayable",
      "type": "function"
    },
    {
      "inputs": [
        {
          "internalType": "address[]",
          "name": "beneficiaries",
          "type": "address[]"
        },
        {
          "internalType": "uint256[]",
          "name": "amounts",
          "type": "uint256[]"
        }
      ],
      "name": "batchCreateTeamVesting",
      "outputs": [],
      "stateMutability": "nonpayable",
      "type": "function"
    },
    {
      "inputs": [
        {
          "internalType": "address[]",
          "name": "beneficiaries",
          "type": "address[]"
        },
        {
          "internalType": "uint256[]",
          "name": "amounts",
          "type": "uint256[]"
        }
      ],
      "name": "batchCreateTreasuryVesting",
      "outputs": [],
      "stateMutability": "nonpayable",
      "type": "function"
    },
    {
      "inputs": [
        {
          "internalType": "uint256",
          "name": "value",
          "type": "uint256"
        }
      ],
      "name": "burn",
      "outputs": [],
      "stateMutability": "nonpayable",
      "type": "function"
    },
    {
      "inputs": [
        {
          "internalType": "address",
          "name": "account",
          "type": "address"
        },
        {
          "internalType": "uint256",
          "name": "value",
          "type": "uint256"
        }
      ],
      "name": "burnFrom",
      "outputs": [],
      "stateMutability": "nonpayable",
      "type": "function"
    },
    {
      "inputs": [],
      "name": "communityAllocation",
      "outputs": [
        {
          "internalType": "uint256",
          "name": "",
          "type": "uint256"
        }
      ],
      "stateMutability": "view",
      "type": "function"
    },
    {
      "inputs": [],
      "name": "communityMinted",
      "outputs": [
        {
          "internalType": "bool",
          "name": "",
          "type": "bool"
        }
      ],
      "stateMutability": "view",
      "type": "function"
    },
    {
      "inputs": [
        {
          "internalType": "address",
          "name": "beneficiary",
          "type": "address"
        },
        {
          "internalType": "uint256",
          "name": "amount",
          "type": "uint256"
        },
        {
          "internalType": "uint256",
          "name": "cliffDuration",
          "type": "uint256"
        },
        {
          "internalType": "uint256",
          "name": "duration",
          "type": "uint256"
        }
      ],
      "name": "createVesting",
      "outputs": [],
      "stateMutability": "nonpayable",
      "type": "function"
    },
    {
      "inputs": [],
      "name": "decimals",
      "outputs": [
        {
          "internalType": "uint8",
          "name": "",
          "type": "uint8"
        }
      ],
      "stateMutability": "view",
      "type": "function"
    },
    {
      "inputs": [
        {
          "internalType": "address",
          "name": "beneficiary",
          "type": "address"
        }
      ],
      "name": "getReleasableAmount",
      "outputs": [
        {
          "internalType": "uint256",
          "name": "",
          "type": "uint256"
        }
      ],
      "stateMutability": "view",
      "type": "function"
    },
    {
      "inputs": [
        {
          "internalType": "bytes32",
          "name": "role",
          "type": "bytes32"
        }
      ],
      "name": "getRoleAdmin",
      "outputs": [
        {
          "internalType": "bytes32",
          "name": "",
          "type": "bytes32"
        }
      ],
      "stateMutability": "view",
      "type": "function"
    },
    {
      "inputs": [
        {
          "internalType": "bytes32",
          "name": "role",
          "type": "bytes32"
        },
        {
          "internalType": "address",
          "name": "account",
          "type": "address"
        }
      ],
      "name": "grantRole",
      "outputs": [],
      "stateMutability": "nonpayable",
      "type": "function"
    },
    {
      "inputs": [
        {
          "internalType": "bytes32",
          "name": "role",
          "type": "bytes32"
        },
        {
          "internalType": "address",
          "name": "account",
          "type": "address"
        }
      ],
      "name": "hasRole",
      "outputs": [
        {
          "internalType": "bool",
          "name": "",
          "type": "bool"
        }
      ],
      "stateMutability": "view",
      "type": "function"
    },
    {
      "inputs": [],
      "name": "investorAllocation",
      "outputs": [
        {
          "internalType": "uint256",
          "name": "",
          "type": "uint256"
        }
      ],
      "stateMutability": "view",
      "type": "function"
    },
    {
      "inputs": [],
      "name": "investorsMinted",
      "outputs": [
        {
          "internalType": "bool",
          "name": "",
          "type": "bool"
        }
      ],
      "stateMutability": "view",
      "type": "function"
    },
    {
      "inputs": [],
      "name": "liquidityAllocation",
      "outputs": [
        {
          "internalType": "uint256",
          "name": "",
          "type": "uint256"
        }
      ],
      "stateMutability": "view",
      "type": "function"
    },
    {
      "inputs": [],
      "name": "liquidityMinted",
      "outputs": [
        {
          "internalType": "bool",
          "name": "",
          "type": "bool"
        }
      ],
      "stateMutability": "view",
      "type": "function"
    },
    {
      "inputs": [
        {
          "internalType": "address",
          "name": "to",
          "type": "address"
        },
        {
          "internalType": "uint256",
          "name": "amount",
          "type": "uint256"
        }
      ],
      "name": "mint",
      "outputs": [],
      "stateMutability": "nonpayable",
      "type": "function"
    },
    {
      "inputs": [
        {
          "internalType": "address",
          "name": "communityRecipient",
          "type": "address"
        },
        {
          "internalType": "address",
          "name": "airdropRecipient",
          "type": "address"
        },
        {
          "internalType": "address",
          "name": "liquidityRecipient",
          "type": "address"
        }
      ],
      "name": "mintInitialAllocations",
      "outputs": [],
      "stateMutability": "nonpayable",
      "type": "function"
    },
    {
      "inputs": [],
      "name": "mintedSupply",
      "outputs": [
        {
          "internalType": "uint256",
          "name": "",
          "type": "uint256"
        }
      ],
      "stateMutability": "view",
      "type": "function"
    },
    {
      "inputs": [],
      "name": "name",
      "outputs": [
        {
          "internalType": "string",
          "name": "",
          "type": "string"
        }
      ],
      "stateMutability": "view",
      "type": "function"
    },
    {
      "inputs": [],
      "name": "owner",
      "outputs": [
        {
          "internalType": "address",
          "name": "",
          "type": "address"
        }
      ],
      "stateMutability": "view",
      "type": "function"
    },
    {
      "inputs": [
        {
          "internalType": "address",
          "name": "beneficiary",
          "type": "address"
        }
      ],
      "name": "releaseVesting",
      "outputs": [],
      "stateMutability": "nonpayable",
      "type": "function"
    },
    {
      "inputs": [],
      "name": "renounceOwnership",
      "outputs": [],
      "stateMutability": "nonpayable",
      "type": "function"
    },
    {
      "inputs": [
        {
          "internalType": "bytes32",
          "name": "role",
          "type": "bytes32"
        },
        {
          "internalType": "address",
          "name": "callerConfirmation",
          "type": "address"
        }
      ],
      "name": "renounceRole",
      "outputs": [],
      "stateMutability": "nonpayable",
      "type": "function"
    },
    {
      "inputs": [
        {
          "internalType": "bytes32",
          "name": "role",
          "type": "bytes32"
        },
        {
          "internalType": "address",
          "name": "account",
          "type": "address"
        }
      ],
      "name": "revokeRole",
      "outputs": [],
      "stateMutability": "nonpayable",
      "type": "function"
    },
    {
      "inputs": [
        {
          "internalType": "address",
          "name": "newTreasury",
          "type": "address"
        }
      ],
      "name": "setTreasury",
      "outputs": [],
      "stateMutability": "nonpayable",
      "type": "function"
    },
    {
      "inputs": [
        {
          "internalType": "bytes4",
          "name": "interfaceId",
          "type": "bytes4"
        }
      ],
      "name": "supportsInterface",
      "outputs": [
        {
          "internalType": "bool",
          "name": "",
          "type": "bool"
        }
      ],
      "stateMutability": "view",
      "type": "function"
    },
    {
      "inputs": [],
      "name": "symbol",
      "outputs": [
        {
          "internalType": "string",
          "name": "",
          "type": "string"
        }
      ],
      "stateMutability": "view",
      "type": "function"
    },
    {
      "inputs": [],
      "name": "teamAllocation",
      "outputs": [
        {
          "internalType": "uint256",
          "name": "",
          "type": "uint256"
        }
      ],
      "stateMutability": "view",
      "type": "function"
    },
    {
      "inputs": [],
      "name": "teamMinted",
      "outputs": [
        {
          "internalType": "bool",
          "name": "",
          "type": "bool"
        }
      ],
      "stateMutability": "view",
      "type": "function"
    },
    {
      "inputs": [],
      "name": "totalSupply",
      "outputs": [
        {
          "internalType": "uint256",
          "name": "",
          "type": "uint256"
        }
      ],
      "stateMutability": "view",
      "type": "function"
    },
    {
      "inputs": [
        {
          "internalType": "address",
          "name": "to",
          "type": "address"
        },
        {
          "internalType": "uint256",
          "name": "value",
          "type": "uint256"
        }
      ],
      "name": "transfer",
      "outputs": [
        {
          "internalType": "bool",
          "name": "",
          "type": "bool"
        }
      ],
      "stateMutability": "nonpayable",
      "type": "function"
    },
    {
      "inputs": [
        {
          "internalType": "address",
          "name": "from",
          "type": "address"
        },
        {
          "internalType": "address",
          "name": "to",
          "type": "address"
        },
        {
          "internalType": "uint256",
          "name": "value",
          "type": "uint256"
        }
      ],
      "name": "transferFrom",
      "outputs": [
        {
          "internalType": "bool",
          "name": "",
          "type": "bool"
        }
      ],
      "stateMutability": "nonpayable",
      "type": "function"
    },
    {
      "inputs": [
        {
          "internalType": "address",
          "name": "newOwner",
          "type": "address"
        }
      ],
      "name": "transferOwnership",
      "outputs": [],
      "stateMutability": "nonpayable",
      "type": "function"
    },
    {
      "inputs": [],
      "name": "treasury",
      "outputs": [
        {
          "internalType": "address",
          "name": "",
          "type": "address"
        }
      ],
      "stateMutability": "view",
      "type": "function"
    },
    {
      "inputs": [],
      "name": "treasuryAllocation",
      "outputs": [
        {
          "internalType": "uint256",
          "name": "",
          "type": "uint256"
        }
      ],
      "stateMutability": "view",
      "type": "function"
    },
    {
      "inputs": [],
      "name": "treasuryMinted",
      "outputs": [
        {
          "internalType": "bool",
          "name": "",
          "type": "bool"
        }
      ],
      "stateMutability": "view",
      "type": "function"
    },
    {
      "inputs": [
        {
          "internalType": "address",
          "name": "",
          "type": "address"
        }
      ],
      "name": "vestingSchedules",
      "outputs": [
        {
          "internalType": "uint256",
          "name": "totalAmount",
          "type": "uint256"
        },
        {
          "internalType": "uint256",
          "name": "startTime",
          "type": "uint256"
        },
        {
          "internalType": "uint256",
          "name": "cliffDuration",
          "type": "uint256"
        },
        {
          "internalType": "uint256",
          "name": "duration",
          "type": "uint256"
        },
        {
          "internalType": "uint256",
          "name": "releasedAmount",
          "type": "uint256"
        }
      ],
      "stateMutability": "view",
      "type": "function"
    }
  ],
  "bytecode": "0x60806040526b014adf4b7320334b900000006009556aa56fa5b99019a5c8000000600a556a7c13bc4b2c133c56000000600b556a7c13bc4b2c133c56000000600c556a295be96e64066972000000600d556a295be96e64066972000000600e55731234567890123456789012345678901234567890600f60066101000a81548173ffffffffffffffffffffffffffffffffffffffff021916908373ffffffffffffffffffffffffffffffffffffffff160217905550348015620000c157600080fd5b50336040518060400160405280600881526020017f4e657875732041490000000000000000000000000000000000000000000000008152506040518060400160405280600581526020017f4e455855530000000000000000000000000000000000000000000000000000008152508160039081620001409190620006e2565b508060049081620001529190620006e2565b505050600073ffffffffffffffffffffffffffffffffffffffff168173ffffffffffffffffffffffffffffffffffffffff1603620001ca5760006040517f1e4fbdf7000000000000000000000000000000000000000000000000000000008152600401620001c191906200080e565b60405180910390fd5b620001db816200022b60201b60201c565b50620001f16000801b33620002f160201b60201c565b50620002247f9f2df0fed2c77648de5860a4cc508cd0818c85b8b8a1ab4ceeef8d981c8956a633620002f160201b60201c565b506200082b565b6000600560009054906101000a900473ffffffffffffffffffffffffffffffffffffffff16905081600560006101000a81548173ffffffffffffffffffffffffffffffffffffffff021916908373ffffffffffffffffffffffffffffffffffffffff1602179055508173ffffffffffffffffffffffffffffffffffffffff168173ffffffffffffffffffffffffffffffffffffffff167f8be0079c531659141344cd1fd0a4f28419497f9722a3daafe3b4186f6b6457e060405160405180910390a35050565b6000620003058383620003f560201b60201c565b620003ea5760016006600085815260200190815260200160002060000160008473ffffffffffffffffffffffffffffffffffffffff1673ffffffffffffffffffffffffffffffffffffffff16815260200190815260200160002060006101000a81548160ff021916908315150217905550620003866200046060201b60201c565b73ffffffffffffffffffffffffffffffffffffffff168273ffffffffffffffffffffffffffffffffffffffff16847f2f8788117e7eff1d82e926ec794901d17c78024a50270940304540a733656f0d60405160405180910390a460019050620003ef565b600090505b92915050565b60006006600084815260200190815260200160002060000160008373ffffffffffffffffffffffffffffffffffffffff1673ffffffffffffffffffffffffffffffffffffffff16815260200190815260200160002060009054906101000a900460ff16905092915050565b600033905090565b600081519050919050565b7f4e487b7100000000000000000000000000000000000000000000000000000000600052604160045260246000fd5b7f4e487b7100000000000000000000000000000000000000000000000000000000600052602260045260246000fd5b60006002820490506001821680620004ea57607f821691505b6020821081036200050057620004ff620004a2565b5b50919050565b60008190508160005260206000209050919050565b60006020601f8301049050919050565b600082821b905092915050565b6000600883026200056a7fffffffffffffffffffffffffffffffffffffffffffffffffffffffffffffffff826200052b565b6200057686836200052b565b95508019841693508086168417925050509392505050565b6000819050919050565b6000819050919050565b6000620005c3620005bd620005b7846200058e565b62000598565b6200058e565b9050919050565b6000819050919050565b620005df83620005a2565b620005f7620005ee82620005ca565b84845462000538565b825550505050565b600090565b6200060e620005ff565b6200061b818484620005d4565b505050565b5b8181101562000643576200063760008262000604565b60018101905062000621565b5050565b601f82111562000692576200065c8162000506565b62000667846200051b565b8101602085101562000677578190505b6200068f62000686856200051b565b83018262000620565b50505b505050565b600082821c905092915050565b6000620006b76000198460080262000697565b1980831691505092915050565b6000620006d28383620006a4565b9150826002028217905092915050565b620006ed8262000468565b67ffffffffffffffff81111562000709576200070862000473565b5b620007158254620004d1565b6200072282828562000647565b600060209050601f8311600181146200075a576000841562000745578287015190505b620007518582620006c4565b865550620007c1565b601f1984166200076a8662000506565b60005b8281101562000794578489015182556001820191506020850194506020810190506200076d565b86831015620007b45784890151620007b0601f891682620006a4565b8355505b6001600288020188555050505b505050505050565b600073ffffffffffffffffffffffffffffffffffffffff82169050919050565b6000620007f682620007c9565b9050919050565b6200080881620007e9565b82525050565b6000602082019050620008256000830184620007fd565b92915050565b61321e806200083b6000396000f3fe608060405234801561001057600080fd5b50600436106102955760003560e01c806386dcae5311610167578063d486d129116100ce578063e8b5498d11610087578063e8b5498d146107e0578063f0f44260146107fe578063f2fde38b1461081a578063f8b4e40e14610836578063fdb20ccb14610852578063fdd0f3ca1461088657610295565b8063d486d1291461071e578063d53913931461073a578063d53b4ab414610758578063d547741f14610776578063d9c5b0d314610792578063dd62ed3e146107b057610295565b8063a217fddf11610120578063a217fddf1461065a578063a9059cbb14610678578063abd653d7146106a8578063b01793b8146106c6578063c1bd8cf9146106e2578063c98d23091461070057610295565b806386dcae53146105965780638b940bfc146105b45780638da5cb5b146105d05780638eab0751146105ee57806391d148541461060c57806395d89b411461063c57610295565b806332cb6b0c1161020b57806361d027b3116101c457806361d027b3146104e85780636816521a1461050657806370a0823114610524578063715018a61461055457806379cc67901461055e57806381f5e8291461057a57610295565b806332cb6b0c1461043a57806336568abe1461045857806340c10f191461047457806342966c68146104905780634f3147ba146104ac57806359de3bc4146104ca57610295565b806318160ddd1161025d57806318160ddd1461035257806323b872dd14610370578063248a9ca3146103a05780632afd1a7d146103d05780632f2ff15d14610400578063313ce5671461041c57610295565b806301ffc9a71461029a5780630665a06f146102ca578063068e422f146102e657806306fdde0314610304578063095ea7b314610322575b600080fd5b6102b460048036038101906102af919061243e565b6108a4565b6040516102c19190612486565b60405180910390f35b6102e460048036038101906102df9190612535565b6108b6565b005b6102ee610a33565b6040516102fb9190612486565b60405180910390f35b61030c610a46565b604051610319919061262c565b60405180910390f35b61033c6004803603810190610337919061264e565b610ad8565b6040516103499190612486565b60405180910390f35b61035a610afb565b604051610367919061269d565b60405180910390f35b61038a600480360381019061038591906126b8565b610b05565b6040516103979190612486565b60405180910390f35b6103ba60048036038101906103b59190612741565b610b34565b6040516103c7919061277d565b60405180910390f35b6103ea60048036038101906103e59190612798565b610b54565b6040516103f7919061269d565b60405180910390f35b61041a600480360381019061041591906127c5565b610ba4565b005b610424610bc6565b6040516104319190612821565b60405180910390f35b610442610bcf565b60405161044f919061269d565b60405180910390f35b610472600480360381019061046d91906127c5565b610bdf565b005b61048e6004803603810190610489919061264e565b610c5a565b005b6104aa60048036038101906104a5919061283c565b610d08565b005b6104b4610d1c565b6040516104c1919061269d565b60405180910390f35b6104d2610d22565b6040516104df919061269d565b60405180910390f35b6104f0610d28565b6040516104fd9190612878565b60405180910390f35b61050e610d4e565b60405161051b919061269d565b60405180910390f35b61053e60048036038101906105399190612798565b610d54565b60405161054b919061269d565b60405180910390f35b61055c610d9c565b005b6105786004803603810190610573919061264e565b610db0565b005b610594600480360381019061058f919061294e565b610dd0565b005b61059e610f1b565b6040516105ab919061269d565b60405180910390f35b6105ce60048036038101906105c9919061294e565b610f21565b005b6105d861106a565b6040516105e59190612878565b60405180910390f35b6105f6611094565b6040516106039190612486565b60405180910390f35b610626600480360381019061062191906127c5565b6110a7565b6040516106339190612486565b60405180910390f35b610644611112565b604051610651919061262c565b60405180910390f35b6106626111a4565b60405161066f919061277d565b60405180910390f35b610692600480360381019061068d919061264e565b6111ab565b60405161069f9190612486565b60405180910390f35b6106b06111ce565b6040516106bd919061269d565b60405180910390f35b6106e060048036038101906106db919061294e565b6111d4565b005b6106ea611320565b6040516106f7919061269d565b60405180910390f35b610708611326565b6040516107159190612486565b60405180910390f35b61073860048036038101906107339190612798565b611339565b005b61074261148b565b60405161074f919061277d565b60405180910390f35b6107606114af565b60405161076d919061269d565b60405180910390f35b610790600480360381019061078b91906127c5565b6114b5565b005b61079a6114d7565b6040516107a79190612486565b60405180910390f35b6107ca60048036038101906107c591906129cf565b6114ea565b6040516107d7919061269d565b60405180910390f35b6107e8611571565b6040516107f59190612486565b60405180910390f35b61081860048036038101906108139190612798565b611584565b005b610834600480360381019061082f9190612798565b611682565b005b610850600480360381019061084b9190612a0f565b611708565b005b61086c60048036038101906108679190612798565b6117c9565b60405161087d959493929190612a62565b60405180910390f35b61088e6117ff565b60405161089b9190612486565b60405180910390f35b60006108af82611812565b9050919050565b6108be61188c565b6000600860008673ffffffffffffffffffffffffffffffffffffffff1673ffffffffffffffffffffffffffffffffffffffff1681526020019081526020016000206000015414610943576040517f08c379a000000000000000000000000000000000000000000000000000000000815260040161093a90612b01565b60405180910390fd5b6040518060a001604052808481526020014281526020018381526020018281526020016000815250600860008673ffffffffffffffffffffffffffffffffffffffff1673ffffffffffffffffffffffffffffffffffffffff16815260200190815260200160002060008201518160000155602082015181600101556040820151816002015560608201518160030155608082015181600401559050508373ffffffffffffffffffffffffffffffffffffffff167f2f5488c5b0350655053f3d00e1693b26a49ecd0242b2c0df881ccda054490d3084604051610a25919061269d565b60405180910390a250505050565b600f60029054906101000a900460ff1681565b606060038054610a5590612b50565b80601f0160208091040260200160405190810160405280929190818152602001828054610a8190612b50565b8015610ace5780601f10610aa357610100808354040283529160200191610ace565b820191906000526020600020905b815481529060010190602001808311610ab157829003601f168201915b5050505050905090565b600080610ae3611913565b9050610af081858561191b565b600191505092915050565b6000600254905090565b600080610b10611913565b9050610b1d85828561192d565b610b288585856119c2565b60019150509392505050565b600060066000838152602001908152602001600020600101549050919050565b6000610b9d600860008473ffffffffffffffffffffffffffffffffffffffff1673ffffffffffffffffffffffffffffffffffffffff168152602001908152602001600020611ab6565b9050919050565b610bad82610b34565b610bb681611b62565b610bc08383611b76565b50505050565b60006012905090565b6b033b2e3c9fd0803ce800000081565b610be7611913565b73ffffffffffffffffffffffffffffffffffffffff168173ffffffffffffffffffffffffffffffffffffffff1614610c4b576040517f6697b23200000000000000000000000000000000000000000000000000000000815260040160405180910390fd5b610c558282611c68565b505050565b7f9f2df0fed2c77648de5860a4cc508cd0818c85b8b8a1ab4ceeef8d981c8956a6610c8481611b62565b6b033b2e3c9fd0803ce800000082600754610c9f9190612bb0565b1115610ce0576040517f08c379a0000000000000000000000000000000000000000000000000000000008152600401610cd790612c30565b60405180910390fd5b8160076000828254610cf29190612bb0565b92505081905550610d038383611d5b565b505050565b610d19610d13611913565b82611ddd565b50565b600c5481565b600b5481565b600f60069054906101000a900473ffffffffffffffffffffffffffffffffffffffff1681565b600a5481565b60008060008373ffffffffffffffffffffffffffffffffffffffff1673ffffffffffffffffffffffffffffffffffffffff168152602001908152602001600020549050919050565b610da461188c565b610dae6000611e5f565b565b610dc282610dbc611913565b8361192d565b610dcc8282611ddd565b5050565b610dd861188c565b818190508484905014610e20576040517f08c379a0000000000000000000000000000000000000000000000000000000008152600401610e1790612c9c565b60405180910390fd5b60005b84849050811015610ef9573073ffffffffffffffffffffffffffffffffffffffff16630665a06f868684818110610e5d57610e5c612cbc565b5b9050602002016020810190610e729190612798565b858585818110610e8557610e84612cbc565b5b9050602002013562ed4e006303c267006040518563ffffffff1660e01b8152600401610eb49493929190612d6b565b600060405180830381600087803b158015610ece57600080fd5b505af1158015610ee2573d6000803e3d6000fd5b505050508080610ef190612db0565b915050610e23565b506001600f60026101000a81548160ff02191690831515021790555050505050565b600d5481565b610f2961188c565b818190508484905014610f71576040517f08c379a0000000000000000000000000000000000000000000000000000000008152600401610f6890612c9c565b60405180910390fd5b60005b84849050811015611048573073ffffffffffffffffffffffffffffffffffffffff16630665a06f868684818110610fae57610fad612cbc565b5b9050602002016020810190610fc39190612798565b858585818110610fd657610fd5612cbc565b5b9050602002013560006305a39a806040518563ffffffff1660e01b81526004016110039493929190612e6e565b600060405180830381600087803b15801561101d57600080fd5b505af1158015611031573d6000803e3d6000fd5b50505050808061104090612db0565b915050610f74565b506001600f60036101000a81548160ff02191690831515021790555050505050565b6000600560009054906101000a900473ffffffffffffffffffffffffffffffffffffffff16905090565b600f60059054906101000a900460ff1681565b60006006600084815260200190815260200160002060000160008373ffffffffffffffffffffffffffffffffffffffff1673ffffffffffffffffffffffffffffffffffffffff16815260200190815260200160002060009054906101000a900460ff16905092915050565b60606004805461112190612b50565b80601f016020809104026020016040519081016040528092919081815260200182805461114d90612b50565b801561119a5780601f1061116f5761010080835404028352916020019161119a565b820191906000526020600020905b81548152906001019060200180831161117d57829003601f168201915b5050505050905090565b6000801b81565b6000806111b6611913565b90506111c38185856119c2565b600191505092915050565b600e5481565b6111dc61188c565b818190508484905014611224576040517f08c379a000000000000000000000000000000000000000000000000000000000815260040161121b90612c9c565b60405180910390fd5b60005b848490508110156112fe573073ffffffffffffffffffffffffffffffffffffffff16630665a06f86868481811061126157611260612cbc565b5b90506020020160208101906112769190612798565b85858581811061128957611288612cbc565b5b905060200201356301e13380630784ce006040518563ffffffff1660e01b81526004016112b99493929190612f29565b600060405180830381600087803b1580156112d357600080fd5b505af11580156112e7573d6000803e3d6000fd5b5050505080806112f690612db0565b915050611227565b506001600f60016101000a81548160ff02191690831515021790555050505050565b60075481565b600f60049054906101000a900460ff1681565b6000600860008373ffffffffffffffffffffffffffffffffffffffff1673ffffffffffffffffffffffffffffffffffffffff168152602001908152602001600020905060008160000154116113c3576040517f08c379a00000000000000000000000000000000000000000000000000000000081526004016113ba90612fba565b60405180910390fd5b60006113ce82611ab6565b905060008111611413576040517f08c379a000000000000000000000000000000000000000000000000000000000815260040161140a90613026565b60405180910390fd5b808260040160008282546114279190612bb0565b925050819055506114388382611d5b565b8273ffffffffffffffffffffffffffffffffffffffff167f4ad7799f99297062cea73c5a21d23a1fcf49f6a1957f7409712e555a0dcd1e1d8260405161147e919061269d565b60405180910390a2505050565b7f9f2df0fed2c77648de5860a4cc508cd0818c85b8b8a1ab4ceeef8d981c8956a681565b60095481565b6114be82610b34565b6114c781611b62565b6114d18383611c68565b50505050565b600f60009054906101000a900460ff1681565b6000600160008473ffffffffffffffffffffffffffffffffffffffff1673ffffffffffffffffffffffffffffffffffffffff16815260200190815260200160002060008373ffffffffffffffffffffffffffffffffffffffff1673ffffffffffffffffffffffffffffffffffffffff16815260200190815260200160002054905092915050565b600f60019054906101000a900460ff1681565b61158c61188c565b600073ffffffffffffffffffffffffffffffffffffffff168173ffffffffffffffffffffffffffffffffffffffff16036115fb576040517f08c379a00000000000000000000000000000000000000000000000000000000081526004016115f290613092565b60405180910390fd5b80600f60066101000a81548173ffffffffffffffffffffffffffffffffffffffff021916908373ffffffffffffffffffffffffffffffffffffffff1602179055508073ffffffffffffffffffffffffffffffffffffffff167f7dae230f18360d76a040c81f050aa14eb9d6dc7901b20fc5d855e2a20fe814d160405160405180910390a250565b61168a61188c565b600073ffffffffffffffffffffffffffffffffffffffff168173ffffffffffffffffffffffffffffffffffffffff16036116fc5760006040517f1e4fbdf70000000000000000000000000000000000000000000000000000000081526004016116f39190612878565b60405180910390fd5b61170581611e5f565b50565b61171061188c565b600f60009054906101000a900460ff1661174c5761173083600954611d5b565b6001600f60006101000a81548160ff0219169083151502179055505b600f60049054906101000a900460ff166117885761176c82600d54611d5b565b6001600f60046101000a81548160ff0219169083151502179055505b600f60059054906101000a900460ff166117c4576117a881600e54611d5b565b6001600f60056101000a81548160ff0219169083151502179055505b505050565b60086020528060005260406000206000915090508060000154908060010154908060020154908060030154908060040154905085565b600f60039054906101000a900460ff1681565b60007f7965db0b000000000000000000000000000000000000000000000000000000007bffffffffffffffffffffffffffffffffffffffffffffffffffffffff1916827bffffffffffffffffffffffffffffffffffffffffffffffffffffffff19161480611885575061188482611f25565b5b9050919050565b611894611913565b73ffffffffffffffffffffffffffffffffffffffff166118b261106a565b73ffffffffffffffffffffffffffffffffffffffff1614611911576118d5611913565b6040517f118cdaa70000000000000000000000000000000000000000000000000000000081526004016119089190612878565b60405180910390fd5b565b600033905090565b6119288383836001611f8f565b505050565b600061193984846114ea565b90507fffffffffffffffffffffffffffffffffffffffffffffffffffffffffffffffff8110156119bc57818110156119ac578281836040517ffb8f41b20000000000000000000000000000000000000000000000000000000081526004016119a3939291906130b2565b60405180910390fd5b6119bb84848484036000611f8f565b5b50505050565b600073ffffffffffffffffffffffffffffffffffffffff168373ffffffffffffffffffffffffffffffffffffffff1603611a345760006040517f96c6fd1e000000000000000000000000000000000000000000000000000000008152600401611a2b9190612878565b60405180910390fd5b600073ffffffffffffffffffffffffffffffffffffffff168273ffffffffffffffffffffffffffffffffffffffff1603611aa65760006040517fec442f05000000000000000000000000000000000000000000000000000000008152600401611a9d9190612878565b60405180910390fd5b611ab1838383612166565b505050565b600081600201548260010154611acc9190612bb0565b421015611adc5760009050611b5d565b81600301548260010154611af09190612bb0565b4210611b115781600401548260000154611b0a91906130e9565b9050611b5d565b6000826001015442611b2391906130e9565b905060008360030154828560000154611b3c919061311d565b611b46919061318e565b9050836004015481611b5891906130e9565b925050505b919050565b611b7381611b6e611913565b61238b565b50565b6000611b8283836110a7565b611c5d5760016006600085815260200190815260200160002060000160008473ffffffffffffffffffffffffffffffffffffffff1673ffffffffffffffffffffffffffffffffffffffff16815260200190815260200160002060006101000a81548160ff021916908315150217905550611bfa611913565b73ffffffffffffffffffffffffffffffffffffffff168273ffffffffffffffffffffffffffffffffffffffff16847f2f8788117e7eff1d82e926ec794901d17c78024a50270940304540a733656f0d60405160405180910390a460019050611c62565b600090505b92915050565b6000611c7483836110a7565b15611d505760006006600085815260200190815260200160002060000160008473ffffffffffffffffffffffffffffffffffffffff1673ffffffffffffffffffffffffffffffffffffffff16815260200190815260200160002060006101000a81548160ff021916908315150217905550611ced611913565b73ffffffffffffffffffffffffffffffffffffffff168273ffffffffffffffffffffffffffffffffffffffff16847ff6391f5c32d9c69d2a47ea670b442974b53935d1edc7fd64eb21e047a839171b60405160405180910390a460019050611d55565b600090505b92915050565b600073ffffffffffffffffffffffffffffffffffffffff168273ffffffffffffffffffffffffffffffffffffffff1603611dcd5760006040517fec442f05000000000000000000000000000000000000000000000000000000008152600401611dc49190612878565b60405180910390fd5b611dd960008383612166565b5050565b600073ffffffffffffffffffffffffffffffffffffffff168273ffffffffffffffffffffffffffffffffffffffff1603611e4f5760006040517f96c6fd1e000000000000000000000000000000000000000000000000000000008152600401611e469190612878565b60405180910390fd5b611e5b82600083612166565b5050565b6000600560009054906101000a900473ffffffffffffffffffffffffffffffffffffffff16905081600560006101000a81548173ffffffffffffffffffffffffffffffffffffffff021916908373ffffffffffffffffffffffffffffffffffffffff1602179055508173ffffffffffffffffffffffffffffffffffffffff168173ffffffffffffffffffffffffffffffffffffffff167f8be0079c531659141344cd1fd0a4f28419497f9722a3daafe3b4186f6b6457e060405160405180910390a35050565b60007f01ffc9a7000000000000000000000000000000000000000000000000000000007bffffffffffffffffffffffffffffffffffffffffffffffffffffffff1916827bffffffffffffffffffffffffffffffffffffffffffffffffffffffff1916149050919050565b600073ffffffffffffffffffffffffffffffffffffffff168473ffffffffffffffffffffffffffffffffffffffff16036120015760006040517fe602df05000000000000000000000000000000000000000000000000000000008152600401611ff89190612878565b60405180910390fd5b600073ffffffffffffffffffffffffffffffffffffffff168373ffffffffffffffffffffffffffffffffffffffff16036120735760006040517f94280d6200000000000000000000000000000000000000000000000000000000815260040161206a9190612878565b60405180910390fd5b81600160008673ffffffffffffffffffffffffffffffffffffffff1673ffffffffffffffffffffffffffffffffffffffff16815260200190815260200160002060008573ffffffffffffffffffffffffffffffffffffffff1673ffffffffffffffffffffffffffffffffffffffff168152602001908152602001600020819055508015612160578273ffffffffffffffffffffffffffffffffffffffff168473ffffffffffffffffffffffffffffffffffffffff167f8c5be1e5ebec7d5bd14f71427d1e84f3dd0314c0f7b2291e5b200ac8c7c3b92584604051612157919061269d565b60405180910390a35b50505050565b600073ffffffffffffffffffffffffffffffffffffffff168373ffffffffffffffffffffffffffffffffffffffff16036121b85780600260008282546121ac9190612bb0565b9250508190555061228b565b60008060008573ffffffffffffffffffffffffffffffffffffffff1673ffffffffffffffffffffffffffffffffffffffff16815260200190815260200160002054905081811015612244578381836040517fe450d38c00000000000000000000000000000000000000000000000000000000815260040161223b939291906130b2565b60405180910390fd5b8181036000808673ffffffffffffffffffffffffffffffffffffffff1673ffffffffffffffffffffffffffffffffffffffff16815260200190815260200160002081905550505b600073ffffffffffffffffffffffffffffffffffffffff168273ffffffffffffffffffffffffffffffffffffffff16036122d45780600260008282540392505081905550612321565b806000808473ffffffffffffffffffffffffffffffffffffffff1673ffffffffffffffffffffffffffffffffffffffff168152602001908152602001600020600082825401925050819055505b8173ffffffffffffffffffffffffffffffffffffffff168373ffffffffffffffffffffffffffffffffffffffff167fddf252ad1be2c89b69c2b068fc378daa952ba7f163c4a11628f55a4df523b3ef8360405161237e919061269d565b60405180910390a3505050565b61239582826110a7565b6123d85780826040517fe2517d3f0000000000000000000000000000000000000000000000000000000081526004016123cf9291906131bf565b60405180910390fd5b5050565b600080fd5b600080fd5b60007fffffffff0000000000000000000000000000000000000000000000000000000082169050919050565b61241b816123e6565b811461242657600080fd5b50565b60008135905061243881612412565b92915050565b600060208284031215612454576124536123dc565b5b600061246284828501612429565b91505092915050565b60008115159050919050565b6124808161246b565b82525050565b600060208201905061249b6000830184612477565b92915050565b600073ffffffffffffffffffffffffffffffffffffffff82169050919050565b60006124cc826124a1565b9050919050565b6124dc816124c1565b81146124e757600080fd5b50565b6000813590506124f9816124d3565b92915050565b6000819050919050565b612512816124ff565b811461251d57600080fd5b50565b60008135905061252f81612509565b92915050565b6000806000806080858703121561254f5761254e6123dc565b5b600061255d878288016124ea565b945050602061256e87828801612520565b935050604061257f87828801612520565b925050606061259087828801612520565b91505092959194509250565b600081519050919050565b600082825260208201905092915050565b60005b838110156125d65780820151818401526020810190506125bb565b60008484015250505050565b6000601f19601f8301169050919050565b60006125fe8261259c565b61260881856125a7565b93506126188185602086016125b8565b612621816125e2565b840191505092915050565b6000602082019050818103600083015261264681846125f3565b905092915050565b60008060408385031215612665576126646123dc565b5b6000612673858286016124ea565b925050602061268485828601612520565b9150509250929050565b612697816124ff565b82525050565b60006020820190506126b2600083018461268e565b92915050565b6000806000606084860312156126d1576126d06123dc565b5b60006126df868287016124ea565b93505060206126f0868287016124ea565b925050604061270186828701612520565b9150509250925092565b6000819050919050565b61271e8161270b565b811461272957600080fd5b50565b60008135905061273b81612715565b92915050565b600060208284031215612757576127566123dc565b5b60006127658482850161272c565b91505092915050565b6127778161270b565b82525050565b6000602082019050612792600083018461276e565b92915050565b6000602082840312156127ae576127ad6123dc565b5b60006127bc848285016124ea565b91505092915050565b600080604083850312156127dc576127db6123dc565b5b60006127ea8582860161272c565b92505060206127fb858286016124ea565b9150509250929050565b600060ff82169050919050565b61281b81612805565b82525050565b60006020820190506128366000830184612812565b92915050565b600060208284031215612852576128516123dc565b5b600061286084828501612520565b91505092915050565b612872816124c1565b82525050565b600060208201905061288d6000830184612869565b92915050565b600080fd5b600080fd5b600080fd5b60008083601f8401126128b8576128b7612893565b5b8235905067ffffffffffffffff8111156128d5576128d4612898565b5b6020830191508360208202830111156128f1576128f061289d565b5b9250929050565b60008083601f84011261290e5761290d612893565b5b8235905067ffffffffffffffff81111561292b5761292a612898565b5b6020830191508360208202830111156129475761294661289d565b5b9250929050565b60008060008060408587031215612968576129676123dc565b5b600085013567ffffffffffffffff811115612986576129856123e1565b5b612992878288016128a2565b9450945050602085013567ffffffffffffffff8111156129b5576129b46123e1565b5b6129c1878288016128f8565b925092505092959194509250565b600080604083850312156129e6576129e56123dc565b5b60006129f4858286016124ea565b9250506020612a05858286016124ea565b9150509250929050565b600080600060608486031215612a2857612a276123dc565b5b6000612a36868287016124ea565b9350506020612a47868287016124ea565b9250506040612a58868287016124ea565b9150509250925092565b600060a082019050612a77600083018861268e565b612a84602083018761268e565b612a91604083018661268e565b612a9e606083018561268e565b612aab608083018461268e565b9695505050505050565b7f56657374696e6720657869737473000000000000000000000000000000000000600082015250565b6000612aeb600e836125a7565b9150612af682612ab5565b602082019050919050565b60006020820190508181036000830152612b1a81612ade565b9050919050565b7f4e487b7100000000000000000000000000000000000000000000000000000000600052602260045260246000fd5b60006002820490506001821680612b6857607f821691505b602082108103612b7b57612b7a612b21565b5b50919050565b7f4e487b7100000000000000000000000000000000000000000000000000000000600052601160045260246000fd5b6000612bbb826124ff565b9150612bc6836124ff565b9250828201905080821115612bde57612bdd612b81565b5b92915050565b7f4d617820737570706c7920657863656564656400000000000000000000000000600082015250565b6000612c1a6013836125a7565b9150612c2582612be4565b602082019050919050565b60006020820190508181036000830152612c4981612c0d565b9050919050565b7f4c656e677468206d69736d617463680000000000000000000000000000000000600082015250565b6000612c86600f836125a7565b9150612c9182612c50565b602082019050919050565b60006020820190508181036000830152612cb581612c79565b9050919050565b7f4e487b7100000000000000000000000000000000000000000000000000000000600052603260045260246000fd5b6000819050919050565b6000819050919050565b6000612d1a612d15612d1084612ceb565b612cf5565b6124ff565b9050919050565b612d2a81612cff565b82525050565b6000819050919050565b6000612d55612d50612d4b84612d30565b612cf5565b6124ff565b9050919050565b612d6581612d3a565b82525050565b6000608082019050612d806000830187612869565b612d8d602083018661268e565b612d9a6040830185612d21565b612da76060830184612d5c565b95945050505050565b6000612dbb826124ff565b91507fffffffffffffffffffffffffffffffffffffffffffffffffffffffffffffffff8203612ded57612dec612b81565b5b600182019050919050565b6000819050919050565b6000612e1d612e18612e1384612df8565b612cf5565b6124ff565b9050919050565b612e2d81612e02565b82525050565b6000819050919050565b6000612e58612e53612e4e84612e33565b612cf5565b6124ff565b9050919050565b612e6881612e3d565b82525050565b6000608082019050612e836000830187612869565b612e90602083018661268e565b612e9d6040830185612e24565b612eaa6060830184612e5f565b95945050505050565b6000819050919050565b6000612ed8612ed3612ece84612eb3565b612cf5565b6124ff565b9050919050565b612ee881612ebd565b82525050565b6000819050919050565b6000612f13612f0e612f0984612eee565b612cf5565b6124ff565b9050919050565b612f2381612ef8565b82525050565b6000608082019050612f3e6000830187612869565b612f4b602083018661268e565b612f586040830185612edf565b612f656060830184612f1a565b95945050505050565b7f4e6f2076657374696e6700000000000000000000000000000000000000000000600082015250565b6000612fa4600a836125a7565b9150612faf82612f6e565b602082019050919050565b60006020820190508181036000830152612fd381612f97565b9050919050565b7f4e6f20746f6b656e732064756500000000000000000000000000000000000000600082015250565b6000613010600d836125a7565b915061301b82612fda565b602082019050919050565b6000602082019050818103600083015261303f81613003565b9050919050565b7f496e76616c696420747265617375727900000000000000000000000000000000600082015250565b600061307c6010836125a7565b915061308782613046565b602082019050919050565b600060208201905081810360008301526130ab8161306f565b9050919050565b60006060820190506130c76000830186612869565b6130d4602083018561268e565b6130e1604083018461268e565b949350505050565b60006130f4826124ff565b91506130ff836124ff565b925082820390508181111561311757613116612b81565b5b92915050565b6000613128826124ff565b9150613133836124ff565b9250828202613141816124ff565b9150828204841483151761315857613157612b81565b5b5092915050565b7f4e487b7100000000000000000000000000000000000000000000000000000000600052601260045260246000fd5b6000613199826124ff565b91506131a4836124ff565b9250826131b4576131b361315f565b5b828204905092915050565b60006040820190506131d46000830185612869565b6131e1602083018461276e565b939250505056fea2646970667358221220504ced420de4f9f2f60f3f2f84e85f4ac951511383b1c92d415b21a445345a8364736f6c63430008140033",
  "linkReferences": {},
  "deployedLinkReferences": {}
}