{
  "_format": "hh-sol-artifact-1",
  "contractName": "NexusGovernor",
  "sourceName": "contracts/NexusGovernor.sol",
  "abi": [
    {
      "inputs": [
        {
          "internalType": "address",
          "name": "_nexusToken",
          "type": "address"
        }
      ],
      "stateMutability": "nonpayable",
      "type": "constructor"
    },
    {
      "inputs": [
        {
          "internalType": "address",
          "name": "owner",
          "type": "address"
        }
      ],
      "name": "OwnableInvalidOwner",
      "type": "error"
    },
    {
      "inputs": [
        {
          "internalType": "address",
          "name": "account",
          "type": "address"
        }
      ],
      "name": "OwnableUnauthorizedAccount",
      "type": "error"
    },
    {
      "anonymous": false,
      "inputs": [
        {
          "indexed": true,
          "internalType": "address",
          "name": "previousOwner",
          "type": "address"
        },
        {
          "indexed": true,
          "internalType": "address",
          "name": "newOwner",
          "type": "address"
        }
      ],
      "name": "OwnershipTransferred",
      "type": "event"
    },
    {
      "anonymous": false,
      "inputs": [
        {
          "indexed": true,
          "internalType": "uint256",
          "name": "id",
          "type": "uint256"
        }
      ],
      "name": "ProposalCanceled",
      "type": "event"
    },
    {
      "anonymous": false,
      "inputs": [
        {
          "indexed": true,
          "internalType": "uint256",
          "name": "id",
          "type": "uint256"
        },
        {
          "indexed": false,
          "internalType": "address",
          "name": "proposer",
          "type": "address"
        },
        {
          "indexed": false,
          "internalType": "string",
          "name": "description",
          "type": "string"
        }
      ],
      "name": "ProposalCreated",
      "type": "event"
    },
    {
      "anonymous": false,
      "inputs": [
        {
          "indexed": true,
          "internalType": "uint256",
          "name": "id",
          "type": "uint256"
        }
      ],
      "name": "ProposalExecuted",
      "type": "event"
    },
    {
      "anonymous": false,
      "inputs": [
        {
          "indexed": true,
          "internalType": "uint256",
          "name": "id",
          "type": "uint256"
        },
        {
          "indexed": false,
          "internalType": "address",
          "name": "voter",
          "type": "address"
        },
        {
          "indexed": false,
          "internalType": "bool",
          "name": "support",
          "type": "bool"
        },
        {
          "indexed": false,
          "internalType": "uint256",
          "name": "weight",
          "type": "uint256"
        }
      ],
      "name": "VoteCast",
      "type": "event"
    },
    {
      "inputs": [
        {
          "internalType": "uint256",
          "name": "proposalId",
          "type": "uint256"
        }
      ],
      "name": "cancel",
      "outputs": [],
      "stateMutability": "nonpayable",
      "type": "function"
    },
    {
      "inputs": [
        {
          "internalType": "uint256",
          "name": "proposalId",
          "type": "uint256"
        },
        {
          "internalType": "bool",
          "name": "support",
          "type": "bool"
        }
      ],
      "name": "castVote",
      "outputs": [],
      "stateMutability": "nonpayable",
      "type": "function"
    },
    {
      "inputs": [
        {
          "internalType": "uint256",
          "name": "proposalId",
          "type": "uint256"
        }
      ],
      "name": "execute",
      "outputs": [],
      "stateMutability": "nonpayable",
      "type": "function"
    },
    {
      "inputs": [
        {
          "internalType": "uint256",
          "name": "",
          "type": "uint256"
        },
        {
          "internalType": "address",
          "name": "",
          "type": "address"
        }
      ],
      "name": "hasVoted",
      "outputs": [
        {
          "internalType": "bool",
          "name": "",
          "type": "bool"
        }
      ],
      "stateMutability": "view",
      "type": "function"
    },
    {
      "inputs": [],
      "name": "nexusToken",
      "outputs": [
        {
          "internalType": "contract IERC20",
          "name": "",
          "type": "address"
        }
      ],
      "stateMutability": "view",
      "type": "function"
    },
    {
      "inputs": [],
      "name": "owner",
      "outputs": [
        {
          "internalType": "address",
          "name": "",
          "type": "address"
        }
      ],
      "stateMutability": "view",
      "type": "function"
    },
    {
      "inputs": [],
      "name": "proposalCount",
      "outputs": [
        {
          "internalType": "uint256",
          "name": "",
          "type": "uint256"
        }
      ],
      "stateMutability": "view",
      "type": "function"
    },
    {
      "inputs": [],
      "name": "proposalThreshold",
      "outputs": [
        {
          "internalType": "uint256",
          "name": "",
          "type": "uint256"
        }
      ],
      "stateMutability": "view",
      "type": "function"
    },
    {
      "inputs": [
        {
          "internalType": "uint256",
          "name": "",
          "type": "uint256"
        }
      ],
      "name": "proposals",
      "outputs": [
        {
          "internalType": "address",
          "name": "proposer",
          "type": "address"
        },
        {
          "internalType": "string",
          "name": "description",
          "type": "string"
        },
        {
          "internalType": "address",
          "name": "target",
          "type": "address"
        },
        {
          "internalType": "bytes",
          "name": "data",
          "type": "bytes"
        },
        {
          "internalType": "uint256",
          "name": "voteStart",
          "type": "uint256"
        },
        {
          "internalType": "uint256",
          "name": "voteEnd",
          "type": "uint256"
        },
        {
          "internalType": "uint256",
          "name": "forVotes",
          "type": "uint256"
        },
        {
          "internalType": "uint256",
          "name": "againstVotes",
          "type": "uint256"
        },
        {
          "internalType": "bool",
          "name": "executed",
          "type": "bool"
        },
        {
          "internalType": "bool",
          "name": "canceled",
          "type": "bool"
        }
      ],
      "stateMutability": "view",
      "type": "function"
    },
    {
      "inputs": [
        {
          "internalType": "string",
          "name": "description",
          "type": "string"
        },
        {
          "internalType": "address",
          "name": "target",
          "type": "address"
        },
        {
          "internalType": "bytes",
          "name": "data",
          "type": "bytes"
        }
      ],
      "name": "propose",
      "outputs": [
        {
          "internalType": "uint256",
          "name": "",
          "type": "uint256"
        }
      ],
      "stateMutability": "nonpayable",
      "type": "function"
    },
    {
      "inputs": [],
      "name": "quorumThreshold",
      "outputs": [
        {
          "internalType": "uint256",
          "name": "",
          "type": "uint256"
        }
      ],
      "stateMutability": "view",
      "type": "function"
    },
    {
      "inputs": [],
      "name": "renounceOwnership",
      "outputs": [],
      "stateMutability": "nonpayable",
      "type": "function"
    },
    {
      "inputs": [
        {
          "internalType": "uint256",
          "name": "threshold",
          "type": "uint256"
        }
      ],
      "name": "setProposalThreshold",
      "outputs": [],
      "stateMutability": "nonpayable",
      "type": "function"
    },
    {
      "inputs": [
        {
          "internalType": "uint256",
          "name": "threshold",
          "type": "uint256"
        }
      ],
      "name": "setQuorumThreshold",
      "outputs": [],
      "stateMutability": "nonpayable",
      "type": "function"
    },
    {
      "inputs": [
        {
          "internalType": "uint256",
          "name": "delay",
          "type": "uint256"
        }
      ],
      "name": "setVotingDelay",
      "outputs": [],
      "stateMutability": "nonpayable",
      "type": "function"
    },
    {
      "inputs": [
        {
          "internalType": "uint256",
          "name": "period",
          "type": "uint256"
        }
      ],
      "name": "setVotingPeriod",
      "outputs": [],
      "stateMutability": "nonpayable",
      "type": "function"
    },
    {
      "inputs": [
        {
          "internalType": "uint256",
          "name": "proposalId",
          "type": "uint256"
        }
      ],
      "name": "state",
      "outputs": [
        {
          "internalType": "enum NexusGovernor.ProposalState",
          "name": "",
          "type": "uint8"
        }
      ],
      "stateMutability": "view",
      "type": "function"
    },
    {
      "inputs": [
        {
          "internalType": "address",
          "name": "newOwner",
          "type": "address"
        }
      ],
      "name": "transferOwnership",
      "outputs": [],
      "stateMutability": "nonpayable",
      "type": "function"
    },
    {
      "inputs": [],
      "name": "votingDelay",
      "outputs": [
        {
          "internalType": "uint256",
          "name": "",
          "type": "uint256"
        }
      ],
      "stateMutability": "view",
      "type": "function"
    },
    {
      "inputs": [],
      "name": "votingPeriod",
      "outputs": [
        {
          "internalType": "uint256",
          "name": "",
          "type": "uint256"
        }
      ],
      "stateMutability": "view",
      "type": "function"
    }
  ],
  "bytecode": "0x60806040526a084595161401484a0000006002556a295be96e6406697200000060035562015180600455620697806005553480156200003d57600080fd5b50604051620028cc380380620028cc833981810160405281019062000063919062000261565b33600073ffffffffffffffffffffffffffffffffffffffff168173ffffffffffffffffffffffffffffffffffffffff1603620000d95760006040517f1e4fbdf7000000000000000000000000000000000000000000000000000000008152600401620000d09190620002a4565b60405180910390fd5b620000ea816200013360201b60201c565b5080600160006101000a81548173ffffffffffffffffffffffffffffffffffffffff021916908373ffffffffffffffffffffffffffffffffffffffff16021790555050620002c1565b60008060009054906101000a900473ffffffffffffffffffffffffffffffffffffffff169050816000806101000a81548173ffffffffffffffffffffffffffffffffffffffff021916908373ffffffffffffffffffffffffffffffffffffffff1602179055508173ffffffffffffffffffffffffffffffffffffffff168173ffffffffffffffffffffffffffffffffffffffff167f8be0079c531659141344cd1fd0a4f28419497f9722a3daafe3b4186f6b6457e060405160405180910390a35050565b600080fd5b600073ffffffffffffffffffffffffffffffffffffffff82169050919050565b60006200022982620001fc565b9050919050565b6200023b816200021c565b81146200024757600080fd5b50565b6000815190506200025b8162000230565b92915050565b6000602082840312156200027a5762000279620001f7565b5b60006200028a848285016200024a565b91505092915050565b6200029e816200021c565b82525050565b6000602082019050620002bb600083018462000293565b92915050565b6125fb80620002d16000396000f3fe608060405234801561001057600080fd5b506004361061012c5760003560e01c806378f337e7116100ad578063da35c66411610071578063da35c66414610328578063ea0217cf14610346578063ece40cc114610362578063f2fde38b1461037e578063fe0d94c11461039a5761012c565b806378f337e7146102805780637b7a91dd1461029e5780638da5cb5b146102bc578063b58131b0146102da578063d54a0ea6146102f85761012c565b806340e58ee5116100f457806340e58ee5146101f2578063438596321461020e5780634524c7e11461023e57806370b0f6601461025a578063715018a6146102765761012c565b8063013cf08b1461013157806302a251a31461016a57806315373e3d146101885780633932abb1146101a45780633e4f49e6146101c2575b600080fd5b61014b600480360381019061014691906113d1565b6103b6565b6040516101619a9998979695949392919061154e565b60405180910390f35b610172610574565b60405161017f91906115f8565b60405180910390f35b6101a2600480360381019061019d919061163f565b61057a565b005b6101ac61089a565b6040516101b991906115f8565b60405180910390f35b6101dc60048036038101906101d791906113d1565b6108a0565b6040516101e991906116f6565b60405180910390f35b61020c600480360381019061020791906113d1565b6109b8565b005b6102286004803603810190610223919061173d565b610b01565b604051610235919061177d565b60405180910390f35b610258600480360381019061025391906113d1565b610b30565b005b610274600480360381019061026f91906113d1565b610b42565b005b61027e610b54565b005b610288610b68565b60405161029591906117f7565b60405180910390f35b6102a6610b8e565b6040516102b391906115f8565b60405180910390f35b6102c4610b94565b6040516102d19190611812565b60405180910390f35b6102e2610bbd565b6040516102ef91906115f8565b60405180910390f35b610312600480360381019061030d9190611a03565b610bc3565b60405161031f91906115f8565b60405180910390f35b610330610dfb565b60405161033d91906115f8565b60405180910390f35b610360600480360381019061035b91906113d1565b610e01565b005b61037c600480360381019061037791906113d1565b610e13565b005b61039860048036038101906103939190611a8e565b610e25565b005b6103b460048036038101906103af91906113d1565b610eab565b005b60066020528060005260406000206000915090508060000160009054906101000a900473ffffffffffffffffffffffffffffffffffffffff16908060010180546103ff90611aea565b80601f016020809104026020016040519081016040528092919081815260200182805461042b90611aea565b80156104785780601f1061044d57610100808354040283529160200191610478565b820191906000526020600020905b81548152906001019060200180831161045b57829003601f168201915b5050505050908060020160009054906101000a900473ffffffffffffffffffffffffffffffffffffffff16908060030180546104b390611aea565b80601f01602080910402602001604051908101604052809291908181526020018280546104df90611aea565b801561052c5780601f106105015761010080835404028352916020019161052c565b820191906000526020600020905b81548152906001019060200180831161050f57829003601f168201915b5050505050908060040154908060050154908060060154908060070154908060080160009054906101000a900460ff16908060080160019054906101000a900460ff1690508a565b60055481565b6008548211156105bf576040517f08c379a00000000000000000000000000000000000000000000000000000000081526004016105b690611b67565b60405180910390fd5b6000600660008481526020019081526020016000209050806004015442101580156105ed5750806005015442105b61062c576040517f08c379a000000000000000000000000000000000000000000000000000000000815260040161062390611bd3565b60405180910390fd5b6007600084815260200190815260200160002060003373ffffffffffffffffffffffffffffffffffffffff1673ffffffffffffffffffffffffffffffffffffffff16815260200190815260200160002060009054906101000a900460ff16156106ca576040517f08c379a00000000000000000000000000000000000000000000000000000000081526004016106c190611c3f565b60405180910390fd5b6000600160009054906101000a900473ffffffffffffffffffffffffffffffffffffffff1673ffffffffffffffffffffffffffffffffffffffff166370a08231336040518263ffffffff1660e01b81526004016107279190611812565b602060405180830381865afa158015610744573d6000803e3d6000fd5b505050506040513d601f19601f820116820180604052508101906107689190611c74565b9050600081116107ad576040517f08c379a00000000000000000000000000000000000000000000000000000000081526004016107a490611ced565b60405180910390fd5b60016007600086815260200190815260200160002060003373ffffffffffffffffffffffffffffffffffffffff1673ffffffffffffffffffffffffffffffffffffffff16815260200190815260200160002060006101000a81548160ff021916908315150217905550821561083c57808260060160008282546108309190611d3c565b92505081905550610858565b808260070160008282546108509190611d3c565b925050819055505b837fcbdf6214089cba887ecbf35a0b6a734589959c9763342c756bb2a80ca2bc9f6e33858460405161088c93929190611d70565b60405180910390a250505050565b60045481565b60006008548211156108e7576040517f08c379a00000000000000000000000000000000000000000000000000000000081526004016108de90611b67565b60405180910390fd5b60006006600084815260200190815260200160002090508060080160019054906101000a900460ff161561091f5760029150506109b3565b8060080160009054906101000a900460ff16156109405760059150506109b3565b80600401544210156109565760009150506109b3565b806005015442101561096c5760019150506109b3565b6000816007015482600601546109829190611d3c565b905060035481108061099c57508160070154826006015411155b156109ac576003925050506109b3565b6004925050505b919050565b60006006600083815260200190815260200160002090508060000160009054906101000a900473ffffffffffffffffffffffffffffffffffffffff1673ffffffffffffffffffffffffffffffffffffffff163373ffffffffffffffffffffffffffffffffffffffff1614610a61576040517f08c379a0000000000000000000000000000000000000000000000000000000008152600401610a5890611df3565b60405180910390fd5b8060080160009054906101000a900460ff1615610ab3576040517f08c379a0000000000000000000000000000000000000000000000000000000008152600401610aaa90611e5f565b60405180910390fd5b60018160080160016101000a81548160ff021916908315150217905550817f789cf55be980739dad1d0699b93b58e806b51c9d96619bfa8fe0a28abaa7b30c60405160405180910390a25050565b60076020528160005260406000206020528060005260406000206000915091509054906101000a900460ff1681565b610b38611234565b8060038190555050565b610b4a611234565b8060048190555050565b610b5c611234565b610b6660006112bb565b565b600160009054906101000a900473ffffffffffffffffffffffffffffffffffffffff1681565b60035481565b60008060009054906101000a900473ffffffffffffffffffffffffffffffffffffffff16905090565b60025481565b6000600254600160009054906101000a900473ffffffffffffffffffffffffffffffffffffffff1673ffffffffffffffffffffffffffffffffffffffff166370a08231336040518263ffffffff1660e01b8152600401610c239190611812565b602060405180830381865afa158015610c40573d6000803e3d6000fd5b505050506040513d601f19601f82011682018060405250810190610c649190611c74565b1015610ca5576040517f08c379a0000000000000000000000000000000000000000000000000000000008152600401610c9c90611ecb565b60405180910390fd5b60086000815480929190610cb890611eeb565b9190505550600060085490506000600660008381526020019081526020016000209050338160000160006101000a81548173ffffffffffffffffffffffffffffffffffffffff021916908373ffffffffffffffffffffffffffffffffffffffff16021790555085816001019081610d2f91906120d5565b50848160020160006101000a81548173ffffffffffffffffffffffffffffffffffffffff021916908373ffffffffffffffffffffffffffffffffffffffff16021790555083816003019081610d849190612202565b5060045442610d939190611d3c565b81600401819055506005548160040154610dad9190611d3c565b8160050181905550817f7585f467599d0f008985f231af99293be388626ac16ca59505c2f8f88969cd633388604051610de79291906122d4565b60405180910390a281925050509392505050565b60085481565b610e09611234565b8060058190555050565b610e1b611234565b8060028190555050565b610e2d611234565b600073ffffffffffffffffffffffffffffffffffffffff168173ffffffffffffffffffffffffffffffffffffffff1603610e9f5760006040517f1e4fbdf7000000000000000000000000000000000000000000000000000000008152600401610e969190611812565b60405180910390fd5b610ea8816112bb565b50565b600854811115610ef0576040517f08c379a0000000000000000000000000000000000000000000000000000000008152600401610ee790611b67565b60405180910390fd5b60006006600083815260200190815260200160002090508060050154421015610f4e576040517f08c379a0000000000000000000000000000000000000000000000000000000008152600401610f4590612350565b60405180910390fd5b8060080160009054906101000a900460ff1615610fa0576040517f08c379a0000000000000000000000000000000000000000000000000000000008152600401610f9790611e5f565b60405180910390fd5b8060080160019054906101000a900460ff1615610ff2576040517f08c379a0000000000000000000000000000000000000000000000000000000008152600401610fe9906123bc565b60405180910390fd5b6000816007015482600601546110089190611d3c565b905060035481101561104f576040517f08c379a000000000000000000000000000000000000000000000000000000000815260040161104690612428565b60405180910390fd5b8160070154826006015411611099576040517f08c379a000000000000000000000000000000000000000000000000000000000815260040161109090612494565b60405180910390fd5b60018260080160006101000a81548160ff021916908315150217905550600073ffffffffffffffffffffffffffffffffffffffff168260020160009054906101000a900473ffffffffffffffffffffffffffffffffffffffff1673ffffffffffffffffffffffffffffffffffffffff16141580156111275750600082600301805461112390611aea565b9050115b156112025760008260020160009054906101000a900473ffffffffffffffffffffffffffffffffffffffff1673ffffffffffffffffffffffffffffffffffffffff168360030160405161117a9190612542565b6000604051808303816000865af19150503d80600081146111b7576040519150601f19603f3d011682016040523d82523d6000602084013e6111bc565b606091505b5050905080611200576040517f08c379a00000000000000000000000000000000000000000000000000000000081526004016111f7906125a5565b60405180910390fd5b505b827f712ae1383f79ac853f8d882153778e0260ef8f03b504e2866e0593e04d2b291f60405160405180910390a2505050565b61123c61137f565b73ffffffffffffffffffffffffffffffffffffffff1661125a610b94565b73ffffffffffffffffffffffffffffffffffffffff16146112b95761127d61137f565b6040517f118cdaa70000000000000000000000000000000000000000000000000000000081526004016112b09190611812565b60405180910390fd5b565b60008060009054906101000a900473ffffffffffffffffffffffffffffffffffffffff169050816000806101000a81548173ffffffffffffffffffffffffffffffffffffffff021916908373ffffffffffffffffffffffffffffffffffffffff1602179055508173ffffffffffffffffffffffffffffffffffffffff168173ffffffffffffffffffffffffffffffffffffffff167f8be0079c531659141344cd1fd0a4f28419497f9722a3daafe3b4186f6b6457e060405160405180910390a35050565b600033905090565b6000604051905090565b600080fd5b600080fd5b6000819050919050565b6113ae8161139b565b81146113b957600080fd5b50565b6000813590506113cb816113a5565b92915050565b6000602082840312156113e7576113e6611391565b5b60006113f5848285016113bc565b91505092915050565b600073ffffffffffffffffffffffffffffffffffffffff82169050919050565b6000611429826113fe565b9050919050565b6114398161141e565b82525050565b600081519050919050565b600082825260208201905092915050565b60005b8381101561147957808201518184015260208101905061145e565b60008484015250505050565b6000601f19601f8301169050919050565b60006114a18261143f565b6114ab818561144a565b93506114bb81856020860161145b565b6114c481611485565b840191505092915050565b600081519050919050565b600082825260208201905092915050565b60006114f6826114cf565b61150081856114da565b935061151081856020860161145b565b61151981611485565b840191505092915050565b61152d8161139b565b82525050565b60008115159050919050565b61154881611533565b82525050565b600061014082019050611564600083018d611430565b8181036020830152611576818c611496565b9050611585604083018b611430565b8181036060830152611597818a6114eb565b90506115a66080830189611524565b6115b360a0830188611524565b6115c060c0830187611524565b6115cd60e0830186611524565b6115db61010083018561153f565b6115e961012083018461153f565b9b9a5050505050505050505050565b600060208201905061160d6000830184611524565b92915050565b61161c81611533565b811461162757600080fd5b50565b60008135905061163981611613565b92915050565b6000806040838503121561165657611655611391565b5b6000611664858286016113bc565b92505060206116758582860161162a565b9150509250929050565b7f4e487b7100000000000000000000000000000000000000000000000000000000600052602160045260246000fd5b600681106116bf576116be61167f565b5b50565b60008190506116d0826116ae565b919050565b60006116e0826116c2565b9050919050565b6116f0816116d5565b82525050565b600060208201905061170b60008301846116e7565b92915050565b61171a8161141e565b811461172557600080fd5b50565b60008135905061173781611711565b92915050565b6000806040838503121561175457611753611391565b5b6000611762858286016113bc565b925050602061177385828601611728565b9150509250929050565b6000602082019050611792600083018461153f565b92915050565b6000819050919050565b60006117bd6117b86117b3846113fe565b611798565b6113fe565b9050919050565b60006117cf826117a2565b9050919050565b60006117e1826117c4565b9050919050565b6117f1816117d6565b82525050565b600060208201905061180c60008301846117e8565b92915050565b60006020820190506118276000830184611430565b92915050565b600080fd5b600080fd5b7f4e487b7100000000000000000000000000000000000000000000000000000000600052604160045260246000fd5b61186f82611485565b810181811067ffffffffffffffff8211171561188e5761188d611837565b5b80604052505050565b60006118a1611387565b90506118ad8282611866565b919050565b600067ffffffffffffffff8211156118cd576118cc611837565b5b6118d682611485565b9050602081019050919050565b82818337600083830152505050565b6000611905611900846118b2565b611897565b90508281526020810184848401111561192157611920611832565b5b61192c8482856118e3565b509392505050565b600082601f8301126119495761194861182d565b5b81356119598482602086016118f2565b91505092915050565b600067ffffffffffffffff82111561197d5761197c611837565b5b61198682611485565b9050602081019050919050565b60006119a66119a184611962565b611897565b9050828152602081018484840111156119c2576119c1611832565b5b6119cd8482856118e3565b509392505050565b600082601f8301126119ea576119e961182d565b5b81356119fa848260208601611993565b91505092915050565b600080600060608486031215611a1c57611a1b611391565b5b600084013567ffffffffffffffff811115611a3a57611a39611396565b5b611a4686828701611934565b9350506020611a5786828701611728565b925050604084013567ffffffffffffffff811115611a7857611a77611396565b5b611a84868287016119d5565b9150509250925092565b600060208284031215611aa457611aa3611391565b5b6000611ab284828501611728565b91505092915050565b7f4e487b7100000000000000000000000000000000000000000000000000000000600052602260045260246000fd5b60006002820490506001821680611b0257607f821691505b602082108103611b1557611b14611abb565b5b50919050565b7f496e76616c69642070726f706f73616c00000000000000000000000000000000600082015250565b6000611b5160108361144a565b9150611b5c82611b1b565b602082019050919050565b60006020820190508181036000830152611b8081611b44565b9050919050565b7f566f74696e67206e6f7420616374697665000000000000000000000000000000600082015250565b6000611bbd60118361144a565b9150611bc882611b87565b602082019050919050565b60006020820190508181036000830152611bec81611bb0565b9050919050565b7f416c726561647920766f74656400000000000000000000000000000000000000600082015250565b6000611c29600d8361144a565b9150611c3482611bf3565b602082019050919050565b60006020820190508181036000830152611c5881611c1c565b9050919050565b600081519050611c6e816113a5565b92915050565b600060208284031215611c8a57611c89611391565b5b6000611c9884828501611c5f565b91505092915050565b7f4e6f20766f74696e6720706f7765720000000000000000000000000000000000600082015250565b6000611cd7600f8361144a565b9150611ce282611ca1565b602082019050919050565b60006020820190508181036000830152611d0681611cca565b9050919050565b7f4e487b7100000000000000000000000000000000000000000000000000000000600052601160045260246000fd5b6000611d478261139b565b9150611d528361139b565b9250828201905080821115611d6a57611d69611d0d565b5b92915050565b6000606082019050611d856000830186611430565b611d92602083018561153f565b611d9f6040830184611524565b949350505050565b7f4e6f742070726f706f7365720000000000000000000000000000000000000000600082015250565b6000611ddd600c8361144a565b9150611de882611da7565b602082019050919050565b60006020820190508181036000830152611e0c81611dd0565b9050919050565b7f416c726561647920657865637574656400000000000000000000000000000000600082015250565b6000611e4960108361144a565b9150611e5482611e13565b602082019050919050565b60006020820190508181036000830152611e7881611e3c565b9050919050565b7f42656c6f772070726f706f73616c207468726573686f6c640000000000000000600082015250565b6000611eb560188361144a565b9150611ec082611e7f565b602082019050919050565b60006020820190508181036000830152611ee481611ea8565b9050919050565b6000611ef68261139b565b91507fffffffffffffffffffffffffffffffffffffffffffffffffffffffffffffffff8203611f2857611f27611d0d565b5b600182019050919050565b60008190508160005260206000209050919050565b60006020601f8301049050919050565b600082821b905092915050565b600060088302611f957fffffffffffffffffffffffffffffffffffffffffffffffffffffffffffffffff82611f58565b611f9f8683611f58565b95508019841693508086168417925050509392505050565b6000611fd2611fcd611fc88461139b565b611798565b61139b565b9050919050565b6000819050919050565b611fec83611fb7565b612000611ff882611fd9565b848454611f65565b825550505050565b600090565b612015612008565b612020818484611fe3565b505050565b5b818110156120445761203960008261200d565b600181019050612026565b5050565b601f8211156120895761205a81611f33565b61206384611f48565b81016020851015612072578190505b61208661207e85611f48565b830182612025565b50505b505050565b600082821c905092915050565b60006120ac6000198460080261208e565b1980831691505092915050565b60006120c5838361209b565b9150826002028217905092915050565b6120de8261143f565b67ffffffffffffffff8111156120f7576120f6611837565b5b6121018254611aea565b61210c828285612048565b600060209050601f83116001811461213f576000841561212d578287015190505b61213785826120b9565b86555061219f565b601f19841661214d86611f33565b60005b8281101561217557848901518255600182019150602085019450602081019050612150565b86831015612192578489015161218e601f89168261209b565b8355505b6001600288020188555050505b505050505050565b60008190508160005260206000209050919050565b601f8211156121fd576121ce816121a7565b6121d784611f48565b810160208510156121e6578190505b6121fa6121f285611f48565b830182612025565b50505b505050565b61220b826114cf565b67ffffffffffffffff81111561222457612223611837565b5b61222e8254611aea565b6122398282856121bc565b600060209050601f83116001811461226c576000841561225a578287015190505b61226485826120b9565b8655506122cc565b601f19841661227a866121a7565b60005b828110156122a25784890151825560018201915060208501945060208101905061227d565b868310156122bf57848901516122bb601f89168261209b565b8355505b6001600288020188555050505b505050505050565b60006040820190506122e96000830185611430565b81810360208301526122fb8184611496565b90509392505050565b7f566f74696e67206e6f7420656e64656400000000000000000000000000000000600082015250565b600061233a60108361144a565b915061234582612304565b602082019050919050565b600060208201905081810360008301526123698161232d565b9050919050565b7f43616e63656c6564000000000000000000000000000000000000000000000000600082015250565b60006123a660088361144a565b91506123b182612370565b602082019050919050565b600060208201905081810360008301526123d581612399565b9050919050565b7f51756f72756d206e6f7420726561636865640000000000000000000000000000600082015250565b600061241260128361144a565b915061241d826123dc565b602082019050919050565b6000602082019050818103600083015261244181612405565b9050919050565b7f50726f706f73616c206465666561746564000000000000000000000000000000600082015250565b600061247e60118361144a565b915061248982612448565b602082019050919050565b600060208201905081810360008301526124ad81612471565b9050919050565b600081905092915050565b600081546124cc81611aea565b6124d681866124b4565b945060018216600081146124f1576001811461250657612539565b60ff1983168652811515820286019350612539565b61250f856121a7565b60005b8381101561253157815481890152600182019150602081019050612512565b838801955050505b50505092915050565b600061254e82846124bf565b915081905092915050565b7f457865637574696f6e206661696c656400000000000000000000000000000000600082015250565b600061258f60108361144a565b915061259a82612559565b602082019050919050565b600060208201905081810360008301526125be81612582565b905091905056fea2646970667358221220116865d9fc4e4195d5bd140cd07f435983cd76feb42b8ab80edc78f1bd72514864736f6c63430008140033",
  "linkReferences": {},
  "deployedLinkReferences": {}
}